{
  "_format": "hh-sol-artifact-1",
  "contractName": "EIP4337Fallback",
  "sourceName": "contracts/account-abstraction/EIP4337Fallback.sol",
  "abi": [
    {
      "inputs": [
        {
          "internalType": "address",
          "name": "_eip4337manager",
          "type": "address"
        }
      ],
      "stateMutability": "nonpayable",
      "type": "constructor"
    },
    {
      "inputs": [],
      "name": "eip4337manager",
      "outputs": [
        {
          "internalType": "address",
          "name": "",
          "type": "address"
        }
      ],
      "stateMutability": "view",
      "type": "function"
    },
    {
      "inputs": [
        {
          "internalType": "address",
          "name": "",
          "type": "address"
        },
        {
          "internalType": "uint256",
          "name": "",
          "type": "uint256"
        },
        {
          "internalType": "bytes",
          "name": "",
          "type": "bytes"
        },
        {
          "internalType": "enum Enum.Operation",
          "name": "",
          "type": "uint8"
        }
      ],
      "name": "executeAndRevert",
      "outputs": [],
      "stateMutability": "nonpayable",
      "type": "function"
    },
    {
      "inputs": [],
      "name": "getNonce",
      "outputs": [
        {
          "internalType": "uint256",
          "name": "nonce",
          "type": "uint256"
        }
      ],
      "stateMutability": "nonpayable",
      "type": "function"
    },
    {
      "inputs": [
        {
          "internalType": "bytes32",
          "name": "_hash",
          "type": "bytes32"
        },
        {
          "internalType": "bytes",
          "name": "_signature",
          "type": "bytes"
        }
      ],
      "name": "isValidSignature",
      "outputs": [
        {
          "internalType": "bytes4",
          "name": "",
          "type": "bytes4"
        }
      ],
      "stateMutability": "view",
      "type": "function"
    },
    {
      "inputs": [
        {
          "internalType": "address",
          "name": "",
          "type": "address"
        },
        {
          "internalType": "address",
          "name": "",
          "type": "address"
        },
        {
          "internalType": "uint256[]",
          "name": "",
          "type": "uint256[]"
        },
        {
          "internalType": "uint256[]",
          "name": "",
          "type": "uint256[]"
        },
        {
          "internalType": "bytes",
          "name": "",
          "type": "bytes"
        }
      ],
      "name": "onERC1155BatchReceived",
      "outputs": [
        {
          "internalType": "bytes4",
          "name": "",
          "type": "bytes4"
        }
      ],
      "stateMutability": "pure",
      "type": "function"
    },
    {
      "inputs": [
        {
          "internalType": "address",
          "name": "",
          "type": "address"
        },
        {
          "internalType": "address",
          "name": "",
          "type": "address"
        },
        {
          "internalType": "uint256",
          "name": "",
          "type": "uint256"
        },
        {
          "internalType": "uint256",
          "name": "",
          "type": "uint256"
        },
        {
          "internalType": "bytes",
          "name": "",
          "type": "bytes"
        }
      ],
      "name": "onERC1155Received",
      "outputs": [
        {
          "internalType": "bytes4",
          "name": "",
          "type": "bytes4"
        }
      ],
      "stateMutability": "pure",
      "type": "function"
    },
    {
      "inputs": [
        {
          "internalType": "address",
          "name": "",
          "type": "address"
        },
        {
          "internalType": "address",
          "name": "",
          "type": "address"
        },
        {
          "internalType": "uint256",
          "name": "",
          "type": "uint256"
        },
        {
          "internalType": "bytes",
          "name": "",
          "type": "bytes"
        }
      ],
      "name": "onERC721Received",
      "outputs": [
        {
          "internalType": "bytes4",
          "name": "",
          "type": "bytes4"
        }
      ],
      "stateMutability": "pure",
      "type": "function"
    },
    {
      "inputs": [
        {
          "internalType": "bytes4",
          "name": "interfaceId",
          "type": "bytes4"
        }
      ],
      "name": "supportsInterface",
      "outputs": [
        {
          "internalType": "bool",
          "name": "",
          "type": "bool"
        }
      ],
      "stateMutability": "view",
      "type": "function"
    },
    {
      "inputs": [
        {
          "internalType": "address",
          "name": "",
          "type": "address"
        },
        {
          "internalType": "address",
          "name": "",
          "type": "address"
        },
        {
          "internalType": "address",
          "name": "",
          "type": "address"
        },
        {
          "internalType": "uint256",
          "name": "",
          "type": "uint256"
        },
        {
          "internalType": "bytes",
          "name": "",
          "type": "bytes"
        },
        {
          "internalType": "bytes",
          "name": "",
          "type": "bytes"
        }
      ],
      "name": "tokensReceived",
      "outputs": [],
      "stateMutability": "pure",
      "type": "function"
    },
    {
      "inputs": [
        {
          "components": [
            {
              "internalType": "address",
              "name": "sender",
              "type": "address"
            },
            {
              "internalType": "uint256",
              "name": "nonce",
              "type": "uint256"
            },
            {
              "internalType": "bytes",
              "name": "initCode",
              "type": "bytes"
            },
            {
              "internalType": "bytes",
              "name": "callData",
              "type": "bytes"
            },
            {
              "internalType": "uint256",
              "name": "callGasLimit",
              "type": "uint256"
            },
            {
              "internalType": "uint256",
              "name": "verificationGasLimit",
              "type": "uint256"
            },
            {
              "internalType": "uint256",
              "name": "preVerificationGas",
              "type": "uint256"
            },
            {
              "internalType": "uint256",
              "name": "maxFeePerGas",
              "type": "uint256"
            },
            {
              "internalType": "uint256",
              "name": "maxPriorityFeePerGas",
              "type": "uint256"
            },
            {
              "internalType": "bytes",
              "name": "paymasterAndData",
              "type": "bytes"
            },
            {
              "internalType": "bytes",
              "name": "signature",
              "type": "bytes"
            }
          ],
          "internalType": "struct UserOperation",
          "name": "",
          "type": "tuple"
        },
        {
          "internalType": "bytes32",
          "name": "",
          "type": "bytes32"
        },
        {
          "internalType": "uint256",
          "name": "",
          "type": "uint256"
        }
      ],
      "name": "validateUserOp",
      "outputs": [
        {
          "internalType": "uint256",
          "name": "deadline",
          "type": "uint256"
        }
      ],
      "stateMutability": "nonpayable",
      "type": "function"
    }
  ],
  "bytecode": "0x60a060405234801561001057600080fd5b50604051610dcc380380610dcc83398101604081905261002f91610040565b6001600160a01b0316608052610070565b60006020828403121561005257600080fd5b81516001600160a01b038116811461006957600080fd5b9392505050565b608051610d3a6100926000396000818161013401526103e80152610d3a6000f3fe608060405234801561001057600080fd5b506004361061009d5760003560e01c80633a871cdd116100665780633a871cdd1461016e578063940d3c601461018f578063bc197c81146101a2578063d087d288146101c4578063f23a6e61146101cc57600080fd5b806223de29146100a257806301ffc9a7146100bc578063150b7a02146100e45780631626ba7e1461011c5780632bcadc241461012f575b600080fd5b6100ba6100b0366004610731565b5050505050505050565b005b6100cf6100ca3660046107dc565b6101ec565b60405190151581526020015b60405180910390f35b6101036100f2366004610806565b630a85bd0160e11b95945050505050565b6040516001600160e01b031990911681526020016100db565b61010361012a36600461093a565b61023e565b6101567f000000000000000000000000000000000000000000000000000000000000000081565b6040516001600160a01b0390911681526020016100db565b61018161017c366004610981565b61033f565b6040519081526020016100db565b6100ba61019d3660046109d5565b610369565b6101036101b0366004610a88565b63bc197c8160e01b98975050505050505050565b610181610378565b6101036101da366004610b22565b63f23a6e6160e01b9695505050505050565b60006001600160e01b03198216630271189760e51b148061021d57506001600160e01b03198216630a85bd0160e11b145b8061023857506001600160e01b031982166301ffc9a760e01b145b92915050565b600080610298846040517f19457468657265756d205369676e6564204d6573736167653a0a3332000000006020820152603c8101829052600090605c01604051602081830303815290604052805190602001209050919050565b905060006102a6828561039f565b6040516317aa5fb760e11b81526001600160a01b038216600482015290915033908190632f54bf6e90602401602060405180830381865afa1580156102ef573d6000803e3d6000fd5b505050506040513d601f19601f820116820180604052508101906103139190610baa565b1561032b5750630b135d3f60e11b9250610238915050565b506001600160e01b03199250610238915050565b60008061034a6103c3565b9050808060200190518101906103609190610bc5565b95945050505050565b6103716103c3565b5050505050565b6000806103836103c3565b9050808060200190518101906103999190610bc5565b91505090565b60008060006103ae8585610478565b915091506103bb816104bd565b509392505050565b604051635229073f60e01b8152606090339060009081908390635229073f90610419907f000000000000000000000000000000000000000000000000000000000000000090859081903690600190600401610bf4565b6000604051808303816000875af1158015610438573d6000803e3d6000fd5b505050506040513d6000823e601f3d908101601f191682016040526104609190810190610c64565b915091508161047157805160208201fd5b9392505050565b60008082516041036104ae5760208301516040840151606085015160001a6104a28782858561060f565b945094505050506104b6565b506000905060025b9250929050565b60008160048111156104d1576104d1610bde565b036104d95750565b60018160048111156104ed576104ed610bde565b0361053f5760405162461bcd60e51b815260206004820152601860248201527f45434453413a20696e76616c6964207369676e6174757265000000000000000060448201526064015b60405180910390fd5b600281600481111561055357610553610bde565b036105a05760405162461bcd60e51b815260206004820152601f60248201527f45434453413a20696e76616c6964207369676e6174757265206c656e677468006044820152606401610536565b60038160048111156105b4576105b4610bde565b0361060c5760405162461bcd60e51b815260206004820152602260248201527f45434453413a20696e76616c6964207369676e6174757265202773272076616c604482015261756560f01b6064820152608401610536565b50565b6000807f7fffffffffffffffffffffffffffffff5d576e7357a4501ddfe92f46681b20a083111561064657506000905060036106ca565b6040805160008082526020820180845289905260ff881692820192909252606081018690526080810185905260019060a0016020604051602081039080840390855afa15801561069a573d6000803e3d6000fd5b5050604051601f1901519150506001600160a01b0381166106c3576000600192509250506106ca565b9150600090505b94509492505050565b80356001600160a01b03811681146106ea57600080fd5b919050565b60008083601f84011261070157600080fd5b50813567ffffffffffffffff81111561071957600080fd5b6020830191508360208285010111156104b657600080fd5b60008060008060008060008060c0898b03121561074d57600080fd5b610756896106d3565b975061076460208a016106d3565b965061077260408a016106d3565b955060608901359450608089013567ffffffffffffffff8082111561079657600080fd5b6107a28c838d016106ef565b909650945060a08b01359150808211156107bb57600080fd5b506107c88b828c016106ef565b999c989b5096995094979396929594505050565b6000602082840312156107ee57600080fd5b81356001600160e01b03198116811461047157600080fd5b60008060008060006080868803121561081e57600080fd5b610827866106d3565b9450610835602087016106d3565b935060408601359250606086013567ffffffffffffffff81111561085857600080fd5b610864888289016106ef565b969995985093965092949392505050565b634e487b7160e01b600052604160045260246000fd5b604051601f8201601f1916810167ffffffffffffffff811182821017156108b4576108b4610875565b604052919050565b600067ffffffffffffffff8211156108d6576108d6610875565b50601f01601f191660200190565b600082601f8301126108f557600080fd5b8135610908610903826108bc565b61088b565b81815284602083860101111561091d57600080fd5b816020850160208301376000918101602001919091529392505050565b6000806040838503121561094d57600080fd5b82359150602083013567ffffffffffffffff81111561096b57600080fd5b610977858286016108e4565b9150509250929050565b60008060006060848603121561099657600080fd5b833567ffffffffffffffff8111156109ad57600080fd5b840161016081870312156109c057600080fd5b95602085013595506040909401359392505050565b600080600080608085870312156109eb57600080fd5b6109f4856106d3565b935060208501359250604085013567ffffffffffffffff811115610a1757600080fd5b610a23878288016108e4565b925050606085013560028110610a3857600080fd5b939692955090935050565b60008083601f840112610a5557600080fd5b50813567ffffffffffffffff811115610a6d57600080fd5b6020830191508360208260051b85010111156104b657600080fd5b60008060008060008060008060a0898b031215610aa457600080fd5b610aad896106d3565b9750610abb60208a016106d3565b9650604089013567ffffffffffffffff80821115610ad857600080fd5b610ae48c838d01610a43565b909850965060608b0135915080821115610afd57600080fd5b610b098c838d01610a43565b909650945060808b01359150808211156107bb57600080fd5b60008060008060008060a08789031215610b3b57600080fd5b610b44876106d3565b9550610b52602088016106d3565b94506040870135935060608701359250608087013567ffffffffffffffff811115610b7c57600080fd5b610b8889828a016106ef565b979a9699509497509295939492505050565b805180151581146106ea57600080fd5b600060208284031215610bbc57600080fd5b61047182610b9a565b600060208284031215610bd757600080fd5b5051919050565b634e487b7160e01b600052602160045260246000fd5b6001600160a01b0386168152602081018590526080604082018190528101839052828460a0830137600060a08483010152600060a0601f19601f860116830101905060028310610c5457634e487b7160e01b600052602160045260246000fd5b8260608301529695505050505050565b60008060408385031215610c7757600080fd5b610c8083610b9a565b915060208084015167ffffffffffffffff811115610c9d57600080fd5b8401601f81018613610cae57600080fd5b8051610cbc610903826108bc565b8181528784838501011115610cd057600080fd5b60005b82811015610cee578381018501518282018601528401610cd3565b506000918101909301525091949193509091505056fea2646970667358221220fa741a37ba2a857b0c3aca1a6f13576e0ca9de7efaf3a289e5cf5ee4e21f068964736f6c63430008120033",
  "linkReferences": {},
  "deployedLinkReferences": {}
}