{
  "_format": "hh-sol-artifact-1",
  "contractName": "EIP4337Manager",
  "sourceName": "contracts/account-abstraction/EIP4337Manager.sol",
  "abi": [
    {
      "inputs": [
        {
          "internalType": "address",
          "name": "anEntryPoint",
          "type": "address"
        }
      ],
      "stateMutability": "nonpayable",
      "type": "constructor"
    },
    {
      "inputs": [],
      "name": "eip4337Fallback",
      "outputs": [
        {
          "internalType": "address",
          "name": "",
          "type": "address"
        }
      ],
      "stateMutability": "view",
      "type": "function"
    },
    {
      "inputs": [],
      "name": "entryPoint",
      "outputs": [
        {
          "internalType": "address",
          "name": "",
          "type": "address"
        }
      ],
      "stateMutability": "view",
      "type": "function"
    },
    {
      "inputs": [
        {
          "internalType": "address",
          "name": "to",
          "type": "address"
        },
        {
          "internalType": "uint256",
          "name": "value",
          "type": "uint256"
        },
        {
          "internalType": "bytes",
          "name": "data",
          "type": "bytes"
        },
        {
          "internalType": "enum Enum.Operation",
          "name": "operation",
          "type": "uint8"
        }
      ],
      "name": "executeAndRevert",
      "outputs": [],
      "stateMutability": "nonpayable",
      "type": "function"
    },
    {
      "inputs": [
        {
          "internalType": "contract Safe",
          "name": "safe",
          "type": "address"
        }
      ],
      "name": "getCurrentEIP4337Manager",
      "outputs": [
        {
          "internalType": "address",
          "name": "prev",
          "type": "address"
        },
        {
          "internalType": "address",
          "name": "manager",
          "type": "address"
        }
      ],
      "stateMutability": "view",
      "type": "function"
    },
    {
      "inputs": [],
      "name": "getNonce",
      "outputs": [
        {
          "internalType": "uint256",
          "name": "",
          "type": "uint256"
        }
      ],
      "stateMutability": "view",
      "type": "function"
    },
    {
      "inputs": [
        {
          "internalType": "address",
          "name": "prevModule",
          "type": "address"
        },
        {
          "internalType": "contract EIP4337Manager",
          "name": "oldManager",
          "type": "address"
        },
        {
          "internalType": "contract EIP4337Manager",
          "name": "newManager",
          "type": "address"
        }
      ],
      "name": "replaceEIP4337Manager",
      "outputs": [],
      "stateMutability": "nonpayable",
      "type": "function"
    },
    {
      "inputs": [
        {
          "internalType": "contract EIP4337Manager",
          "name": "manager",
          "type": "address"
        }
      ],
      "name": "setup4337Modules",
      "outputs": [],
      "stateMutability": "nonpayable",
      "type": "function"
    },
    {
      "inputs": [
        {
          "internalType": "contract Safe",
          "name": "safe",
          "type": "address"
        },
        {
          "internalType": "contract EIP4337Manager",
          "name": "manager",
          "type": "address"
        }
      ],
      "name": "validateEip4337",
      "outputs": [],
      "stateMutability": "nonpayable",
      "type": "function"
    },
    {
      "inputs": [
        {
          "components": [
            {
              "internalType": "address",
              "name": "sender",
              "type": "address"
            },
            {
              "internalType": "uint256",
              "name": "nonce",
              "type": "uint256"
            },
            {
              "internalType": "bytes",
              "name": "initCode",
              "type": "bytes"
            },
            {
              "internalType": "bytes",
              "name": "callData",
              "type": "bytes"
            },
            {
              "internalType": "uint256",
              "name": "callGasLimit",
              "type": "uint256"
            },
            {
              "internalType": "uint256",
              "name": "verificationGasLimit",
              "type": "uint256"
            },
            {
              "internalType": "uint256",
              "name": "preVerificationGas",
              "type": "uint256"
            },
            {
              "internalType": "uint256",
              "name": "maxFeePerGas",
              "type": "uint256"
            },
            {
              "internalType": "uint256",
              "name": "maxPriorityFeePerGas",
              "type": "uint256"
            },
            {
              "internalType": "bytes",
              "name": "paymasterAndData",
              "type": "bytes"
            },
            {
              "internalType": "bytes",
              "name": "signature",
              "type": "bytes"
            }
          ],
          "internalType": "struct UserOperation",
          "name": "userOp",
          "type": "tuple"
        },
        {
          "internalType": "bytes32",
          "name": "userOpHash",
          "type": "bytes32"
        },
        {
          "internalType": "uint256",
          "name": "missingAccountFunds",
          "type": "uint256"
        }
      ],
      "name": "validateUserOp",
      "outputs": [
        {
          "internalType": "uint256",
          "name": "validationData",
          "type": "uint256"
        }
      ],
      "stateMutability": "nonpayable",
      "type": "function"
    }
  ],
  "bytecode": "0x60c06040523480156200001157600080fd5b5060405162002d7338038062002d738339810160408190526200003491620000a0565b6001600160a01b03811660a0526040513090620000519062000092565b6001600160a01b039091168152602001604051809103906000f0801580156200007e573d6000803e3d6000fd5b506001600160a01b031660805250620000d2565b610dcc8062001fa783390190565b600060208284031215620000b357600080fd5b81516001600160a01b0381168114620000cb57600080fd5b9392505050565b60805160a051611e93620001146000396000818161015d0152818161031401528181610a8f015261101f01526000818161010b0152610b080152611e936000f3fe608060405234801561001057600080fd5b50600436106100935760003560e01c8063940d3c6011610066578063940d3c6014610145578063b0d691fe14610158578063d041593b1461017f578063d087d28814610192578063efae6e061461019a57600080fd5b8063039b1728146100985780633a871cdd146100d057806345b1e0ca146100f157806370b8a01d14610106575b600080fd5b6100ab6100a63660046117fb565b6101ad565b604080516001600160a01b039384168152929091166020830152015b60405180910390f35b6100e36100de36600461181f565b6102e1565b6040519081526020016100c7565b6101046100ff366004611873565b6105bd565b005b61012d7f000000000000000000000000000000000000000000000000000000000000000081565b6040516001600160a01b0390911681526020016100c7565b61010461015336600461192f565b610a5d565b61012d7f000000000000000000000000000000000000000000000000000000000000000081565b61010461018d3660046117fb565b610be8565b6100e3611000565b6101046101a83660046119dc565b611097565b604051636617c22960e11b8152600160048201819052606460248301529060009081906001600160a01b0385169063cc2f845290604401600060405180830381865afa158015610201573d6000803e3d6000fd5b505050506040513d6000823e601f3d908101601f191682016040526102299190810190611a32565b50905060005b81518110156102d457600082828151811061024c5761024c611af6565b60200260200101519050806001600160a01b0316632bcadc246040518163ffffffff1660e01b8152600401602060405180830381865afa9250505080156102b0575060408051601f3d908101601f191682019092526102ad91810190611b0c565b60015b156102c057949694955050505050565b9350806102cc81611b3f565b91505061022f565b5060009485945092505050565b60008080366102f1601482611b58565b6102fc928290611b6b565b61030591611b95565b60601c90506001600160a01b037f00000000000000000000000000000000000000000000000000000000000000001681146103875760405162461bcd60e51b815260206004820152601c60248201527f6163636f756e743a206e6f742066726f6d20656e747279706f696e740000000060448201526064015b60405180910390fd5b3060006103e1866040517f19457468657265756d205369676e6564204d6573736167653a0a3332000000006020820152603c8101829052600090605c01604051602081830303815290604052805190602001209050919050565b905060006104336103f66101408a018a611bca565b8080601f01602080910402602001604051908101604052809392919081815260200183838082843760009201919091525086939250506114f79050565b90506004546001146104875760405162461bcd60e51b815260206004820152601960248201527f6163636f756e743a206f6e6c79207468726573686f6c64203100000000000000604482015260640161037e565b6040516317aa5fb760e11b81526001600160a01b038281166004830152841690632f54bf6e90602401602060405180830381865afa1580156104cd573d6000803e3d6000fd5b505050506040513d601f19601f820116820180604052508101906104f19190611c11565b6104fa57600194505b67ffffffffffffffff6020890135106105555760405162461bcd60e51b815260206004820152601c60248201527f6163636f756e743a206e6f6e73657175656e7469616c206e6f6e636500000000604482015260640161037e565b85156105b2576000846001600160a01b03168760405160006040518083038185875af1925050503d80600081146105a8576040519150601f19603f3d011682016040523d82523d6000602084013e6105ad565b606091505b505050505b505050509392505050565b60408051604180825260808201909252600091602082018180368337019050509050601b60f81b816040815181106105f7576105f7611af6565b60200101906001600160f81b031916908160001a905350600160f81b8160028151811061062657610626611af6565b60200101906001600160f81b031916908160001a905350600160f81b8160238151811061065557610655611af6565b60200101906001600160f81b031916908160001a9053506000826001600160a01b031663b0d691fe6040518163ffffffff1660e01b8152600401602060405180830381865afa1580156106ac573d6000803e3d6000fd5b505050506040513d601f19601f820116820180604052508101906106d09190611b0c565b604051631aab3f0d60e11b81526001600160a01b0386811660048301526000602483015291909116906335567e1a90604401602060405180830381865afa15801561071f573d6000803e3d6000fd5b505050506040513d601f19601f820116820180604052508101906107439190611c33565b60408051610160810182526001600160a01b038716815260208082018490528251808201845260008082528385019190915283518083018552818152606084015260808301819052620f424060a084015260c0830181905260e08301819052610100830181905283518083018552818152610120840152610140830187905283516001808252818601909552949550919391929082015b61084060405180610160016040528060006001600160a01b03168152602001600081526020016060815260200160608152602001600081526020016000815260200160008152602001600081526020016000815260200160608152602001606081525090565b8152602001906001900390816107da579050509050818160008151811061086957610869611af6565b60200260200101819052506000856001600160a01b031663b0d691fe6040518163ffffffff1660e01b8152600401602060405180830381865afa1580156108b4573d6000803e3d6000fd5b505050506040513d601f19601f820116820180604052508101906108d89190611b0c565b6040516307eb652360e21b81529091506001600160a01b03821690631fad948c906109099085903390600401611c9c565b600060405180830381600087803b15801561092357600080fd5b505af1925050508015610934575060015b610a00573d808015610962576040519150601f19603f3d011682016040523d82523d6000602084013e610967565b606091505b5060408051600060248201526044810191909152601460648201527320a0991a1039b4b3b730ba3ab9329032b93937b960611b608482015260a40160408051601f19818403018152919052602080820180516001600160e01b0316631101335b60e11b1781529151909120825191830191909120146109fa578060405162461bcd60e51b815260040161037e9190611dc6565b50610a54565b60405162461bcd60e51b8152602060048201526024808201527f76616c6964617465456970343333373a2068616e646c654f7073206d7573742060448201526319985a5b60e21b606482015260840161037e565b50505050505050565b60008036610a6c601482611b58565b610a77928290611b6b565b610a8091611b95565b60601c90506001600160a01b037f0000000000000000000000000000000000000000000000000000000000000000168114610afd5760405162461bcd60e51b815260206004820152601c60248201527f6163636f756e743a206e6f742066726f6d20656e747279706f696e7400000000604482015260640161037e565b336001600160a01b037f00000000000000000000000000000000000000000000000000000000000000001614610b7f5760405162461bcd60e51b815260206004820152602160248201527f6163636f756e743a206e6f742066726f6d204549503433333746616c6c6261636044820152606b60f81b606482015260840161037e565b6000610b908686868660001961151d565b90506000610b9f600019611564565b905081610a5457604481511015610bb557600080fd5b60048101905080806020019051810190610bcf9190611dd9565b60405162461bcd60e51b815260040161037e9190611dc6565b6000309050806001600160a01b0316632d9ad53d836001600160a01b031663b0d691fe6040518163ffffffff1660e01b8152600401602060405180830381865afa158015610c3a573d6000803e3d6000fd5b505050506040513d601f19601f82011682018060405250810190610c5e9190611b0c565b6040516001600160e01b031960e084901b1681526001600160a01b039091166004820152602401602060405180830381865afa158015610ca2573d6000803e3d6000fd5b505050506040513d601f19601f82011682018060405250810190610cc69190611c11565b15610d285760405162461bcd60e51b815260206004820152602c60248201527f7365747570343333374d6f64756c65733a20656e747279706f696e7420616c7260448201526b1958591e48195b98589b195960a21b606482015260840161037e565b806001600160a01b0316632d9ad53d836001600160a01b03166370b8a01d6040518163ffffffff1660e01b8152600401602060405180830381865afa158015610d75573d6000803e3d6000fd5b505050506040513d601f19601f82011682018060405250810190610d999190611b0c565b6040516001600160e01b031960e084901b1681526001600160a01b039091166004820152602401602060405180830381865afa158015610ddd573d6000803e3d6000fd5b505050506040513d601f19601f82011682018060405250810190610e019190611c11565b15610e685760405162461bcd60e51b815260206004820152603160248201527f7365747570343333374d6f64756c65733a206569703433333746616c6c6261636044820152701ac8185b1c9958591e48195b98589b1959607a1b606482015260840161037e565b806001600160a01b031663610b5925836001600160a01b031663b0d691fe6040518163ffffffff1660e01b8152600401602060405180830381865afa158015610eb5573d6000803e3d6000fd5b505050506040513d601f19601f82011682018060405250810190610ed99190611b0c565b6040516001600160e01b031960e084901b1681526001600160a01b039091166004820152602401600060405180830381600087803b158015610f1a57600080fd5b505af1158015610f2e573d6000803e3d6000fd5b50505050806001600160a01b031663610b5925836001600160a01b03166370b8a01d6040518163ffffffff1660e01b8152600401602060405180830381865afa158015610f7f573d6000803e3d6000fd5b505050506040513d601f19601f82011682018060405250810190610fa39190611b0c565b6040516001600160e01b031960e084901b1681526001600160a01b039091166004820152602401600060405180830381600087803b158015610fe457600080fd5b505af1158015610ff8573d6000803e3d6000fd5b505050505050565b604051631aab3f0d60e11b8152306004820152600060248201819052907f00000000000000000000000000000000000000000000000000000000000000006001600160a01b0316906335567e1a90604401602060405180830381865afa15801561106e573d6000803e3d6000fd5b505050506040513d601f19601f820116820180604052508101906110929190611c33565b905090565b60003090506000836001600160a01b03166370b8a01d6040518163ffffffff1660e01b8152600401602060405180830381865afa1580156110dc573d6000803e3d6000fd5b505050506040513d601f19601f820116820180604052508101906111009190611b0c565b604051632d9ad53d60e01b81526001600160a01b03808316600483015291925090831690632d9ad53d90602401602060405180830381865afa15801561114a573d6000803e3d6000fd5b505050506040513d601f19601f8201168201806040525081019061116e9190611c11565b6111d25760405162461bcd60e51b815260206004820152602f60248201527f7265706c616365454950343333374d616e616765723a206f6c644d616e61676560448201526e72206973206e6f742061637469766560881b606482015260840161037e565b816001600160a01b031663e009cfde82866001600160a01b031663b0d691fe6040518163ffffffff1660e01b8152600401602060405180830381865afa158015611220573d6000803e3d6000fd5b505050506040513d601f19601f820116820180604052508101906112449190611b0c565b6040516001600160e01b031960e085901b1681526001600160a01b03928316600482015291166024820152604401600060405180830381600087803b15801561128c57600080fd5b505af11580156112a0573d6000803e3d6000fd5b5050604051637004e7ef60e11b81526001600160a01b03888116600483015284811660248301528516925063e009cfde9150604401600060405180830381600087803b1580156112ef57600080fd5b505af1158015611303573d6000803e3d6000fd5b505050506000836001600160a01b03166370b8a01d6040518163ffffffff1660e01b8152600401602060405180830381865afa158015611347573d6000803e3d6000fd5b505050506040513d601f19601f8201168201806040525081019061136b9190611b0c565b9050826001600160a01b031663610b5925856001600160a01b031663b0d691fe6040518163ffffffff1660e01b8152600401602060405180830381865afa1580156113ba573d6000803e3d6000fd5b505050506040513d601f19601f820116820180604052508101906113de9190611b0c565b6040516001600160e01b031960e084901b1681526001600160a01b039091166004820152602401600060405180830381600087803b15801561141f57600080fd5b505af1158015611433573d6000803e3d6000fd5b505060405163610b592560e01b81526001600160a01b0384811660048301528616925063610b59259150602401600060405180830381600087803b15801561147a57600080fd5b505af115801561148e573d6000803e3d6000fd5b505060405163f08a032360e01b81526001600160a01b0384811660048301528616925063f08a03239150602401600060405180830381600087803b1580156114d557600080fd5b505af11580156114e9573d6000803e3d6000fd5b50505050610ff883856105bd565b60008060006115068585611590565b91509150611513816115d5565b5090505b92915050565b6000600183600181111561153357611533611e47565b0361154b576000808551602087018986f4905061155b565b600080855160208701888a87f190505b95945050505050565b60603d828111156115725750815b604051602082018101604052818152816000602083013e9392505050565b60008082516041036115c65760208301516040840151606085015160001a6115ba87828585611722565b945094505050506115ce565b506000905060025b9250929050565b60008160048111156115e9576115e9611e47565b036115f15750565b600181600481111561160557611605611e47565b036116525760405162461bcd60e51b815260206004820152601860248201527f45434453413a20696e76616c6964207369676e61747572650000000000000000604482015260640161037e565b600281600481111561166657611666611e47565b036116b35760405162461bcd60e51b815260206004820152601f60248201527f45434453413a20696e76616c6964207369676e6174757265206c656e67746800604482015260640161037e565b60038160048111156116c7576116c7611e47565b0361171f5760405162461bcd60e51b815260206004820152602260248201527f45434453413a20696e76616c6964207369676e6174757265202773272076616c604482015261756560f01b606482015260840161037e565b50565b6000807f7fffffffffffffffffffffffffffffff5d576e7357a4501ddfe92f46681b20a083111561175957506000905060036117dd565b6040805160008082526020820180845289905260ff881692820192909252606081018690526080810185905260019060a0016020604051602081039080840390855afa1580156117ad573d6000803e3d6000fd5b5050604051601f1901519150506001600160a01b0381166117d6576000600192509250506117dd565b9150600090505b94509492505050565b6001600160a01b038116811461171f57600080fd5b60006020828403121561180d57600080fd5b8135611818816117e6565b9392505050565b60008060006060848603121561183457600080fd5b833567ffffffffffffffff81111561184b57600080fd5b8401610160818703121561185e57600080fd5b95602085013595506040909401359392505050565b6000806040838503121561188657600080fd5b8235611891816117e6565b915060208301356118a1816117e6565b809150509250929050565b634e487b7160e01b600052604160045260246000fd5b604051601f8201601f1916810167ffffffffffffffff811182821017156118eb576118eb6118ac565b604052919050565b600067ffffffffffffffff82111561190d5761190d6118ac565b50601f01601f191660200190565b80356002811061192a57600080fd5b919050565b6000806000806080858703121561194557600080fd5b8435611950816117e6565b935060208501359250604085013567ffffffffffffffff81111561197357600080fd5b8501601f8101871361198457600080fd5b8035611997611992826118f3565b6118c2565b8181528860208385010111156119ac57600080fd5b816020840160208301376000602083830101528094505050506119d16060860161191b565b905092959194509250565b6000806000606084860312156119f157600080fd5b83356119fc816117e6565b92506020840135611a0c816117e6565b91506040840135611a1c816117e6565b809150509250925092565b805161192a816117e6565b60008060408385031215611a4557600080fd5b825167ffffffffffffffff80821115611a5d57600080fd5b818501915085601f830112611a7157600080fd5b8151602082821115611a8557611a856118ac565b8160051b9250611a968184016118c2565b8281529284018101928181019089851115611ab057600080fd5b948201945b84861015611ada5785519350611aca846117e6565b8382529482019490820190611ab5565b9650611ae99050878201611a27565b9450505050509250929050565b634e487b7160e01b600052603260045260246000fd5b600060208284031215611b1e57600080fd5b8151611818816117e6565b634e487b7160e01b600052601160045260246000fd5b600060018201611b5157611b51611b29565b5060010190565b8181038181111561151757611517611b29565b60008085851115611b7b57600080fd5b83861115611b8857600080fd5b5050820193919092039150565b6bffffffffffffffffffffffff198135818116916014851015611bc25780818660140360031b1b83161692505b505092915050565b6000808335601e19843603018112611be157600080fd5b83018035915067ffffffffffffffff821115611bfc57600080fd5b6020019150368190038213156115ce57600080fd5b600060208284031215611c2357600080fd5b8151801515811461181857600080fd5b600060208284031215611c4557600080fd5b5051919050565b60005b83811015611c67578181015183820152602001611c4f565b50506000910152565b60008151808452611c88816020860160208601611c4c565b601f01601f19169290920160200192915050565b60006040808301818452808651808352606092508286019150828160051b8701016020808a0160005b84811015611da057898403605f19018652815180516001600160a01b03168552610160848201518587015289820151818b880152611d0582880182611c70565b915050888201518682038a880152611d1d8282611c70565b6080848101519089015260a0808501519089015260c0808501519089015260e08085015190890152610100808501519089015261012080850151898303828b01529193509150611d6d8382611c70565b925050506101408083015192508682038188015250611d8c8183611c70565b978501979550505090820190600101611cc5565b5050819650611db98189018a6001600160a01b03169052565b5050505050509392505050565b6020815260006118186020830184611c70565b600060208284031215611deb57600080fd5b815167ffffffffffffffff811115611e0257600080fd5b8201601f81018413611e1357600080fd5b8051611e21611992826118f3565b818152856020838501011115611e3657600080fd5b61155b826020830160208601611c4c565b634e487b7160e01b600052602160045260246000fdfea264697066735822122080497856aff75f38cf62e0ea3f7073ec752c51f845b4a9884a8204491f5fceac64736f6c6343000812003360a060405234801561001057600080fd5b50604051610dcc380380610dcc83398101604081905261002f91610040565b6001600160a01b0316608052610070565b60006020828403121561005257600080fd5b81516001600160a01b038116811461006957600080fd5b9392505050565b608051610d3a6100926000396000818161013401526103e80152610d3a6000f3fe608060405234801561001057600080fd5b506004361061009d5760003560e01c80633a871cdd116100665780633a871cdd1461016e578063940d3c601461018f578063bc197c81146101a2578063d087d288146101c4578063f23a6e61146101cc57600080fd5b806223de29146100a257806301ffc9a7146100bc578063150b7a02146100e45780631626ba7e1461011c5780632bcadc241461012f575b600080fd5b6100ba6100b0366004610731565b5050505050505050565b005b6100cf6100ca3660046107dc565b6101ec565b60405190151581526020015b60405180910390f35b6101036100f2366004610806565b630a85bd0160e11b95945050505050565b6040516001600160e01b031990911681526020016100db565b61010361012a36600461093a565b61023e565b6101567f000000000000000000000000000000000000000000000000000000000000000081565b6040516001600160a01b0390911681526020016100db565b61018161017c366004610981565b61033f565b6040519081526020016100db565b6100ba61019d3660046109d5565b610369565b6101036101b0366004610a88565b63bc197c8160e01b98975050505050505050565b610181610378565b6101036101da366004610b22565b63f23a6e6160e01b9695505050505050565b60006001600160e01b03198216630271189760e51b148061021d57506001600160e01b03198216630a85bd0160e11b145b8061023857506001600160e01b031982166301ffc9a760e01b145b92915050565b600080610298846040517f19457468657265756d205369676e6564204d6573736167653a0a3332000000006020820152603c8101829052600090605c01604051602081830303815290604052805190602001209050919050565b905060006102a6828561039f565b6040516317aa5fb760e11b81526001600160a01b038216600482015290915033908190632f54bf6e90602401602060405180830381865afa1580156102ef573d6000803e3d6000fd5b505050506040513d601f19601f820116820180604052508101906103139190610baa565b1561032b5750630b135d3f60e11b9250610238915050565b506001600160e01b03199250610238915050565b60008061034a6103c3565b9050808060200190518101906103609190610bc5565b95945050505050565b6103716103c3565b5050505050565b6000806103836103c3565b9050808060200190518101906103999190610bc5565b91505090565b60008060006103ae8585610478565b915091506103bb816104bd565b509392505050565b604051635229073f60e01b8152606090339060009081908390635229073f90610419907f000000000000000000000000000000000000000000000000000000000000000090859081903690600190600401610bf4565b6000604051808303816000875af1158015610438573d6000803e3d6000fd5b505050506040513d6000823e601f3d908101601f191682016040526104609190810190610c64565b915091508161047157805160208201fd5b9392505050565b60008082516041036104ae5760208301516040840151606085015160001a6104a28782858561060f565b945094505050506104b6565b506000905060025b9250929050565b60008160048111156104d1576104d1610bde565b036104d95750565b60018160048111156104ed576104ed610bde565b0361053f5760405162461bcd60e51b815260206004820152601860248201527f45434453413a20696e76616c6964207369676e6174757265000000000000000060448201526064015b60405180910390fd5b600281600481111561055357610553610bde565b036105a05760405162461bcd60e51b815260206004820152601f60248201527f45434453413a20696e76616c6964207369676e6174757265206c656e677468006044820152606401610536565b60038160048111156105b4576105b4610bde565b0361060c5760405162461bcd60e51b815260206004820152602260248201527f45434453413a20696e76616c6964207369676e6174757265202773272076616c604482015261756560f01b6064820152608401610536565b50565b6000807f7fffffffffffffffffffffffffffffff5d576e7357a4501ddfe92f46681b20a083111561064657506000905060036106ca565b6040805160008082526020820180845289905260ff881692820192909252606081018690526080810185905260019060a0016020604051602081039080840390855afa15801561069a573d6000803e3d6000fd5b5050604051601f1901519150506001600160a01b0381166106c3576000600192509250506106ca565b9150600090505b94509492505050565b80356001600160a01b03811681146106ea57600080fd5b919050565b60008083601f84011261070157600080fd5b50813567ffffffffffffffff81111561071957600080fd5b6020830191508360208285010111156104b657600080fd5b60008060008060008060008060c0898b03121561074d57600080fd5b610756896106d3565b975061076460208a016106d3565b965061077260408a016106d3565b955060608901359450608089013567ffffffffffffffff8082111561079657600080fd5b6107a28c838d016106ef565b909650945060a08b01359150808211156107bb57600080fd5b506107c88b828c016106ef565b999c989b5096995094979396929594505050565b6000602082840312156107ee57600080fd5b81356001600160e01b03198116811461047157600080fd5b60008060008060006080868803121561081e57600080fd5b610827866106d3565b9450610835602087016106d3565b935060408601359250606086013567ffffffffffffffff81111561085857600080fd5b610864888289016106ef565b969995985093965092949392505050565b634e487b7160e01b600052604160045260246000fd5b604051601f8201601f1916810167ffffffffffffffff811182821017156108b4576108b4610875565b604052919050565b600067ffffffffffffffff8211156108d6576108d6610875565b50601f01601f191660200190565b600082601f8301126108f557600080fd5b8135610908610903826108bc565b61088b565b81815284602083860101111561091d57600080fd5b816020850160208301376000918101602001919091529392505050565b6000806040838503121561094d57600080fd5b82359150602083013567ffffffffffffffff81111561096b57600080fd5b610977858286016108e4565b9150509250929050565b60008060006060848603121561099657600080fd5b833567ffffffffffffffff8111156109ad57600080fd5b840161016081870312156109c057600080fd5b95602085013595506040909401359392505050565b600080600080608085870312156109eb57600080fd5b6109f4856106d3565b935060208501359250604085013567ffffffffffffffff811115610a1757600080fd5b610a23878288016108e4565b925050606085013560028110610a3857600080fd5b939692955090935050565b60008083601f840112610a5557600080fd5b50813567ffffffffffffffff811115610a6d57600080fd5b6020830191508360208260051b85010111156104b657600080fd5b60008060008060008060008060a0898b031215610aa457600080fd5b610aad896106d3565b9750610abb60208a016106d3565b9650604089013567ffffffffffffffff80821115610ad857600080fd5b610ae48c838d01610a43565b909850965060608b0135915080821115610afd57600080fd5b610b098c838d01610a43565b909650945060808b01359150808211156107bb57600080fd5b60008060008060008060a08789031215610b3b57600080fd5b610b44876106d3565b9550610b52602088016106d3565b94506040870135935060608701359250608087013567ffffffffffffffff811115610b7c57600080fd5b610b8889828a016106ef565b979a9699509497509295939492505050565b805180151581146106ea57600080fd5b600060208284031215610bbc57600080fd5b61047182610b9a565b600060208284031215610bd757600080fd5b5051919050565b634e487b7160e01b600052602160045260246000fd5b6001600160a01b0386168152602081018590526080604082018190528101839052828460a0830137600060a08483010152600060a0601f19601f860116830101905060028310610c5457634e487b7160e01b600052602160045260246000fd5b8260608301529695505050505050565b60008060408385031215610c7757600080fd5b610c8083610b9a565b915060208084015167ffffffffffffffff811115610c9d57600080fd5b8401601f81018613610cae57600080fd5b8051610cbc610903826108bc565b8181528784838501011115610cd057600080fd5b60005b82811015610cee578381018501518282018601528401610cd3565b506000918101909301525091949193509091505056fea2646970667358221220fa741a37ba2a857b0c3aca1a6f13576e0ca9de7efaf3a289e5cf5ee4e21f068964736f6c63430008120033",
  "linkReferences": {},
  "deployedLinkReferences": {}
}