{
  "_format": "hh-sol-artifact-1",
  "contractName": "SmartAccountWithSafeFactory",
  "sourceName": "contracts/account-abstraction/SmartAccountWithSafeFactory.sol",
  "abi": [
    {
      "inputs": [
        {
          "internalType": "contract SafeProxyFactory",
          "name": "_proxyFactory",
          "type": "address"
        },
        {
          "internalType": "address",
          "name": "_safeSingleton",
          "type": "address"
        },
        {
          "internalType": "contract EIP4337Manager",
          "name": "_eip4337Manager",
          "type": "address"
        }
      ],
      "stateMutability": "nonpayable",
      "type": "constructor"
    },
    {
      "inputs": [
        {
          "internalType": "address",
          "name": "owner",
          "type": "address"
        },
        {
          "internalType": "uint256",
          "name": "salt",
          "type": "uint256"
        }
      ],
      "name": "createAccount",
      "outputs": [
        {
          "internalType": "address",
          "name": "",
          "type": "address"
        }
      ],
      "stateMutability": "nonpayable",
      "type": "function"
    },
    {
      "inputs": [],
      "name": "eip4337Manager",
      "outputs": [
        {
          "internalType": "contract EIP4337Manager",
          "name": "",
          "type": "address"
        }
      ],
      "stateMutability": "view",
      "type": "function"
    },
    {
      "inputs": [
        {
          "internalType": "address",
          "name": "owner",
          "type": "address"
        },
        {
          "internalType": "uint256",
          "name": "salt",
          "type": "uint256"
        }
      ],
      "name": "getAddress",
      "outputs": [
        {
          "internalType": "address",
          "name": "",
          "type": "address"
        }
      ],
      "stateMutability": "view",
      "type": "function"
    },
    {
      "inputs": [],
      "name": "proxyFactory",
      "outputs": [
        {
          "internalType": "contract SafeProxyFactory",
          "name": "",
          "type": "address"
        }
      ],
      "stateMutability": "view",
      "type": "function"
    },
    {
      "inputs": [],
      "name": "safeSingleton",
      "outputs": [
        {
          "internalType": "address",
          "name": "",
          "type": "address"
        }
      ],
      "stateMutability": "view",
      "type": "function"
    }
  ],
  "bytecode": "0x60e060405234801561001057600080fd5b5060405161093238038061093283398101604081905261002f91610064565b6001600160a01b0392831660805290821660a0521660c0526100b1565b6001600160a01b038116811461006157600080fd5b50565b60008060006060848603121561007957600080fd5b83516100848161004c565b60208501519093506100958161004c565b60408501519092506100a68161004c565b809150509250925092565b60805160a05160c05161081d610115600039600081816061015281816103c00152818161044d01526104b301526000818160ca0152818161016c01526102d601526000818160f10152818161013d01528181610250015261032e015261081d6000f3fe608060405234801561001057600080fd5b50600436106100575760003560e01c80630e8ac4881461005c5780635fbfb9cf1461009f5780638cb84e18146100b2578063ac7d146b146100c5578063c10f1a75146100ec575b600080fd5b6100837f000000000000000000000000000000000000000000000000000000000000000081565b6040516001600160a01b03909116815260200160405180910390f35b6100836100ad36600461055c565b610113565b6100836100c036600461055c565b610201565b6100837f000000000000000000000000000000000000000000000000000000000000000081565b6100837f000000000000000000000000000000000000000000000000000000000000000081565b6000806101208484610201565b90506001600160a01b0381163b801561013b575090506101fb565b7f00000000000000000000000000000000000000000000000000000000000000006001600160a01b0316631688f0b97f00000000000000000000000000000000000000000000000000000000000000006101948861035c565b876040518463ffffffff1660e01b81526004016101b3939291906105d8565b6020604051808303816000875af11580156101d2573d6000803e3d6000fd5b505050506040513d601f19601f820116820180604052508101906101f6919061060c565b925050505b92915050565b60008061020d8461035c565b90506000818051906020012084604051602001610234929190918252602082015260400190565b60405160208183030381529060405280519060200120905060007f00000000000000000000000000000000000000000000000000000000000000006001600160a01b03166353e5d9356040518163ffffffff1660e01b8152600401600060405180830381865afa1580156102ac573d6000803e3d6000fd5b505050506040513d6000823e601f3d908101601f191682016040526102d49190810190610646565b7f00000000000000000000000000000000000000000000000000000000000000006001600160a01b031660405160200161030f9291906106f3565b60405160208183030381529060405290506103528282805190602001207f000000000000000000000000000000000000000000000000000000000000000061051a565b9695505050505050565b6040805160018082528183019092526060916000919060208083019080368337019050509050828160008151811061039657610396610715565b60200260200101906001600160a01b031690816001600160a01b03168152505060006001905060007f00000000000000000000000000000000000000000000000000000000000000006001600160a01b03166370b8a01d6040518163ffffffff1660e01b8152600401602060405180830381865afa15801561041c573d6000803e3d6000fd5b505050506040513d601f19601f82011682018060405250810190610440919061060c565b6040516001600160a01b037f000000000000000000000000000000000000000000000000000000000000000016602482015290915060009060440160408051601f198184030181529181526020820180516001600160e01b031663d041593b60e01b179052519091506104e690859085907f000000000000000000000000000000000000000000000000000000000000000090859087906000908190819060240161072b565b60408051601f198184030181529190526020810180516001600160e01b031663b63e800d60e01b1790529695505050505050565b6000604051836040820152846020820152828152600b8101905060ff815360559020949350505050565b6001600160a01b038116811461055957600080fd5b50565b6000806040838503121561056f57600080fd5b823561057a81610544565b946020939093013593505050565b60005b838110156105a357818101518382015260200161058b565b50506000910152565b600081518084526105c4816020860160208601610588565b601f01601f19169290920160200192915050565b6001600160a01b03841681526060602082018190526000906105fc908301856105ac565b9050826040830152949350505050565b60006020828403121561061e57600080fd5b815161062981610544565b9392505050565b634e487b7160e01b600052604160045260246000fd5b60006020828403121561065857600080fd5b815167ffffffffffffffff8082111561067057600080fd5b818401915084601f83011261068457600080fd5b81518181111561069657610696610630565b604051601f8201601f19908116603f011681019083821181831017156106be576106be610630565b816040528281528760208487010111156106d757600080fd5b6106e8836020830160208801610588565b979650505050505050565b60008351610705818460208801610588565b9190910191825250602001919050565b634e487b7160e01b600052603260045260246000fd5b6101008082528951908201819052600090610120830190602090818d01845b8281101561076f5781516001600160a01b03168552938301939083019060010161074a565b50505083018a90526001600160a01b0389166040840152828103606084015261079881896105ac565b9150506107b060808301876001600160a01b03169052565b6001600160a01b03851660a08301528360c08301526107da60e08301846001600160a01b03169052565b999850505050505050505056fea264697066735822122002047c4f2f0705b31c3ea5ca50ce23f0da6901cd7ba274f71ee65e392caf897764736f6c63430008120033",
  "linkReferences": {},
  "deployedLinkReferences": {}
}