{
  "_format": "hh-sol-artifact-1",
  "contractName": "SmartAccountFactory",
  "sourceName": "contracts/account-abstraction/SmartAccountFactory.sol",
  "abi": [
    {
      "inputs": [
        {
          "internalType": "contract SafeProxyFactory",
          "name": "_proxyFactory",
          "type": "address"
        },
        {
          "internalType": "address",
          "name": "_safeSingleton",
          "type": "address"
        }
      ],
      "stateMutability": "nonpayable",
      "type": "constructor"
    },
    {
      "anonymous": false,
      "inputs": [
        {
          "indexed": true,
          "internalType": "address",
          "name": "account",
          "type": "address"
        },
        {
          "indexed": true,
          "internalType": "address",
          "name": "owner",
          "type": "address"
        },
        {
          "indexed": false,
          "internalType": "uint256",
          "name": "salt",
          "type": "uint256"
        }
      ],
      "name": "AccountCreated",
      "type": "event"
    },
    {
      "inputs": [
        {
          "internalType": "address",
          "name": "owner",
          "type": "address"
        },
        {
          "internalType": "uint256",
          "name": "salt",
          "type": "uint256"
        }
      ],
      "name": "createAccount",
      "outputs": [
        {
          "internalType": "address",
          "name": "account",
          "type": "address"
        }
      ],
      "stateMutability": "nonpayable",
      "type": "function"
    },
    {
      "inputs": [],
      "name": "defaultCallback",
      "outputs": [
        {
          "internalType": "contract TokenCallbackHandler",
          "name": "",
          "type": "address"
        }
      ],
      "stateMutability": "view",
      "type": "function"
    },
    {
      "inputs": [
        {
          "internalType": "address",
          "name": "owner",
          "type": "address"
        },
        {
          "internalType": "uint256",
          "name": "salt",
          "type": "uint256"
        }
      ],
      "name": "getAddress",
      "outputs": [
        {
          "internalType": "address",
          "name": "",
          "type": "address"
        }
      ],
      "stateMutability": "view",
      "type": "function"
    },
    {
      "inputs": [],
      "name": "proxyFactory",
      "outputs": [
        {
          "internalType": "contract SafeProxyFactory",
          "name": "",
          "type": "address"
        }
      ],
      "stateMutability": "view",
      "type": "function"
    },
    {
      "inputs": [],
      "name": "safeSingleton",
      "outputs": [
        {
          "internalType": "address",
          "name": "",
          "type": "address"
        }
      ],
      "stateMutability": "view",
      "type": "function"
    }
  ],
  "bytecode": "0x60e060405234801561001057600080fd5b50604051610d43380380610d4383398101604081905261002f916100a4565b6001600160a01b03808316608052811660a05260405161004e9061007f565b604051809103906000f08015801561006a573d6000803e3d6000fd5b506001600160a01b031660c052506100de9050565b6104c68061087d83390190565b6001600160a01b03811681146100a157600080fd5b50565b600080604083850312156100b757600080fd5b82516100c28161008c565b60208401519092506100d38161008c565b809150509250929050565b60805160a05160c051610749610134600039600081816090015261040e01526000818160ca0152818161016c015261032301526000818160f10152818161013d0152818161029d015261037b01526107496000f3fe608060405234801561001057600080fd5b50600436106100575760003560e01c80635fbfb9cf1461005c578063810153e71461008b5780638cb84e18146100b2578063ac7d146b146100c5578063c10f1a75146100ec575b600080fd5b61006f61006a3660046104b0565b610113565b6040516001600160a01b03909116815260200160405180910390f35b61006f7f000000000000000000000000000000000000000000000000000000000000000081565b61006f6100c03660046104b0565b61024e565b61006f7f000000000000000000000000000000000000000000000000000000000000000081565b61006f7f000000000000000000000000000000000000000000000000000000000000000081565b600080610120848461024e565b90506001600160a01b0381163b801561013b57509050610248565b7f00000000000000000000000000000000000000000000000000000000000000006001600160a01b0316631688f0b97f0000000000000000000000000000000000000000000000000000000000000000610194886103a9565b876040518463ffffffff1660e01b81526004016101b393929190610500565b6020604051808303816000875af11580156101d2573d6000803e3d6000fd5b505050506040513d601f19601f820116820180604052508101906101f6919061054a565b9250846001600160a01b0316836001600160a01b03167f33310a89c32d8cc00057ad6ef6274d2f8fe22389a992cf89983e09fc84f6cfff8660405161023d91815260200190565b60405180910390a350505b92915050565b60008061025a846103a9565b90506000818051906020012084604051602001610281929190918252602082015260400190565b60405160208183030381529060405280519060200120905060007f00000000000000000000000000000000000000000000000000000000000000006001600160a01b03166353e5d9356040518163ffffffff1660e01b8152600401600060405180830381865afa1580156102f9573d6000803e3d6000fd5b505050506040513d6000823e601f3d908101601f191682016040526103219190810190610584565b7f00000000000000000000000000000000000000000000000000000000000000006001600160a01b031660405160200161035c929190610631565b604051602081830303815290604052905061039f8282805190602001207f000000000000000000000000000000000000000000000000000000000000000061046e565b9695505050505050565b604080516001808252818301909252606091600091906020808301908036833701905050905082816000815181106103e3576103e3610653565b6001600160a01b039092166020928302919091019091015260405160019061043c90839083906000907f000000000000000000000000000000000000000000000000000000000000000090829081908190602401610669565b60408051601f198184030181529190526020810180516001600160e01b031663b63e800d60e01b179052949350505050565b6000604051836040820152846020820152828152600b8101905060ff815360559020949350505050565b6001600160a01b03811681146104ad57600080fd5b50565b600080604083850312156104c357600080fd5b82356104ce81610498565b946020939093013593505050565b60005b838110156104f75781810151838201526020016104df565b50506000910152565b60018060a01b0384168152606060208201526000835180606084015261052d8160808501602088016104dc565b604083019390935250601f91909101601f19160160800192915050565b60006020828403121561055c57600080fd5b815161056781610498565b9392505050565b634e487b7160e01b600052604160045260246000fd5b60006020828403121561059657600080fd5b815167ffffffffffffffff808211156105ae57600080fd5b818401915084601f8301126105c257600080fd5b8151818111156105d4576105d461056e565b604051601f8201601f19908116603f011681019083821181831017156105fc576105fc61056e565b8160405282815287602084870101111561061557600080fd5b6106268360208301602088016104dc565b979650505050505050565b600083516106438184602088016104dc565b9190910191825250602001919050565b634e487b7160e01b600052603260045260246000fd5b6101008082528851908201819052600090610120830190602090818c01845b828110156106ad5781516001600160a01b031685529383019390830190600101610688565b50505083018990526001600160a01b0388811660408501528382036060850152600082528716608084015260200190506001600160a01b03851660a08301528360c083015261070760e08301846001600160a01b03169052565b9897505050505050505056fea2646970667358221220f66cfca7020835e9af2d3d019a2dcc4a29aee5adbb640e138b4ac14dbfc2232364736f6c63430008120033608060405234801561001057600080fd5b506104a6806100206000396000f3fe608060405234801561001057600080fd5b50600436106100565760003560e01c806223de291461005b57806301ffc9a714610075578063150b7a021461009d578063bc197c81146100d5578063f23a6e61146100f7575b600080fd5b6100736100693660046101ce565b5050505050505050565b005b610088610083366004610279565b610117565b60405190151581526020015b60405180910390f35b6100bc6100ab3660046102aa565b630a85bd0160e11b95945050505050565b6040516001600160e01b03199091168152602001610094565b6100bc6100e336600461035e565b63bc197c8160e01b98975050505050505050565b6100bc6101053660046103f8565b63f23a6e6160e01b9695505050505050565b60006001600160e01b03198216630271189760e51b148061014857506001600160e01b03198216630a85bd0160e11b145b8061016357506001600160e01b031982166301ffc9a760e01b145b92915050565b80356001600160a01b038116811461018057600080fd5b919050565b60008083601f84011261019757600080fd5b50813567ffffffffffffffff8111156101af57600080fd5b6020830191508360208285010111156101c757600080fd5b9250929050565b60008060008060008060008060c0898b0312156101ea57600080fd5b6101f389610169565b975061020160208a01610169565b965061020f60408a01610169565b955060608901359450608089013567ffffffffffffffff8082111561023357600080fd5b61023f8c838d01610185565b909650945060a08b013591508082111561025857600080fd5b506102658b828c01610185565b999c989b5096995094979396929594505050565b60006020828403121561028b57600080fd5b81356001600160e01b0319811681146102a357600080fd5b9392505050565b6000806000806000608086880312156102c257600080fd5b6102cb86610169565b94506102d960208701610169565b935060408601359250606086013567ffffffffffffffff8111156102fc57600080fd5b61030888828901610185565b969995985093965092949392505050565b60008083601f84011261032b57600080fd5b50813567ffffffffffffffff81111561034357600080fd5b6020830191508360208260051b85010111156101c757600080fd5b60008060008060008060008060a0898b03121561037a57600080fd5b61038389610169565b975061039160208a01610169565b9650604089013567ffffffffffffffff808211156103ae57600080fd5b6103ba8c838d01610319565b909850965060608b01359150808211156103d357600080fd5b6103df8c838d01610319565b909650945060808b013591508082111561025857600080fd5b60008060008060008060a0878903121561041157600080fd5b61041a87610169565b955061042860208801610169565b94506040870135935060608701359250608087013567ffffffffffffffff81111561045257600080fd5b61045e89828a01610185565b979a969950949750929593949250505056fea2646970667358221220b7c81223aaae1b7042b4f00838f6affaf03119fdc188362219de2dd37534635a64736f6c63430008120033",
  "linkReferences": {},
  "deployedLinkReferences": {}
}