{
  "_format": "hh-sol-artifact-1",
  "contractName": "SmartAccount",
  "sourceName": "contracts/account-abstraction/SmartAccount.sol",
  "abi": [
    {
      "inputs": [
        {
          "internalType": "address",
          "name": "entryPoint",
          "type": "address"
        }
      ],
      "stateMutability": "nonpayable",
      "type": "constructor"
    },
    {
      "anonymous": false,
      "inputs": [
        {
          "indexed": true,
          "internalType": "address",
          "name": "owner",
          "type": "address"
        }
      ],
      "name": "AddedOwner",
      "type": "event"
    },
    {
      "anonymous": false,
      "inputs": [
        {
          "indexed": true,
          "internalType": "bytes32",
          "name": "approvedHash",
          "type": "bytes32"
        },
        {
          "indexed": true,
          "internalType": "address",
          "name": "owner",
          "type": "address"
        }
      ],
      "name": "ApproveHash",
      "type": "event"
    },
    {
      "anonymous": false,
      "inputs": [
        {
          "indexed": true,
          "internalType": "address",
          "name": "handler",
          "type": "address"
        }
      ],
      "name": "ChangedFallbackHandler",
      "type": "event"
    },
    {
      "anonymous": false,
      "inputs": [
        {
          "indexed": true,
          "internalType": "address",
          "name": "guard",
          "type": "address"
        }
      ],
      "name": "ChangedGuard",
      "type": "event"
    },
    {
      "anonymous": false,
      "inputs": [
        {
          "indexed": false,
          "internalType": "uint256",
          "name": "threshold",
          "type": "uint256"
        }
      ],
      "name": "ChangedThreshold",
      "type": "event"
    },
    {
      "anonymous": false,
      "inputs": [
        {
          "indexed": true,
          "internalType": "address",
          "name": "module",
          "type": "address"
        }
      ],
      "name": "DisabledModule",
      "type": "event"
    },
    {
      "anonymous": false,
      "inputs": [
        {
          "indexed": true,
          "internalType": "address",
          "name": "module",
          "type": "address"
        }
      ],
      "name": "EnabledModule",
      "type": "event"
    },
    {
      "anonymous": false,
      "inputs": [
        {
          "indexed": true,
          "internalType": "bytes32",
          "name": "txHash",
          "type": "bytes32"
        },
        {
          "indexed": false,
          "internalType": "uint256",
          "name": "payment",
          "type": "uint256"
        }
      ],
      "name": "ExecutionFailure",
      "type": "event"
    },
    {
      "anonymous": false,
      "inputs": [
        {
          "indexed": true,
          "internalType": "address",
          "name": "module",
          "type": "address"
        }
      ],
      "name": "ExecutionFromModuleFailure",
      "type": "event"
    },
    {
      "anonymous": false,
      "inputs": [
        {
          "indexed": true,
          "internalType": "address",
          "name": "module",
          "type": "address"
        }
      ],
      "name": "ExecutionFromModuleSuccess",
      "type": "event"
    },
    {
      "anonymous": false,
      "inputs": [
        {
          "indexed": true,
          "internalType": "bytes32",
          "name": "txHash",
          "type": "bytes32"
        },
        {
          "indexed": false,
          "internalType": "uint256",
          "name": "payment",
          "type": "uint256"
        }
      ],
      "name": "ExecutionSuccess",
      "type": "event"
    },
    {
      "anonymous": false,
      "inputs": [
        {
          "indexed": true,
          "internalType": "address",
          "name": "owner",
          "type": "address"
        }
      ],
      "name": "RemovedOwner",
      "type": "event"
    },
    {
      "anonymous": false,
      "inputs": [
        {
          "indexed": true,
          "internalType": "address",
          "name": "sender",
          "type": "address"
        },
        {
          "indexed": false,
          "internalType": "uint256",
          "name": "value",
          "type": "uint256"
        }
      ],
      "name": "SafeReceived",
      "type": "event"
    },
    {
      "anonymous": false,
      "inputs": [
        {
          "indexed": true,
          "internalType": "address",
          "name": "initiator",
          "type": "address"
        },
        {
          "indexed": false,
          "internalType": "address[]",
          "name": "owners",
          "type": "address[]"
        },
        {
          "indexed": false,
          "internalType": "uint256",
          "name": "threshold",
          "type": "uint256"
        },
        {
          "indexed": false,
          "internalType": "address",
          "name": "initializer",
          "type": "address"
        },
        {
          "indexed": false,
          "internalType": "address",
          "name": "fallbackHandler",
          "type": "address"
        }
      ],
      "name": "SafeSetup",
      "type": "event"
    },
    {
      "anonymous": false,
      "inputs": [
        {
          "indexed": true,
          "internalType": "bytes32",
          "name": "msgHash",
          "type": "bytes32"
        }
      ],
      "name": "SignMsg",
      "type": "event"
    },
    {
      "stateMutability": "nonpayable",
      "type": "fallback"
    },
    {
      "inputs": [],
      "name": "VERSION",
      "outputs": [
        {
          "internalType": "string",
          "name": "",
          "type": "string"
        }
      ],
      "stateMutability": "view",
      "type": "function"
    },
    {
      "inputs": [],
      "name": "_entryPoint",
      "outputs": [
        {
          "internalType": "address",
          "name": "",
          "type": "address"
        }
      ],
      "stateMutability": "view",
      "type": "function"
    },
    {
      "inputs": [
        {
          "internalType": "address",
          "name": "owner",
          "type": "address"
        },
        {
          "internalType": "uint256",
          "name": "_threshold",
          "type": "uint256"
        }
      ],
      "name": "addOwnerWithThreshold",
      "outputs": [],
      "stateMutability": "nonpayable",
      "type": "function"
    },
    {
      "inputs": [
        {
          "internalType": "bytes32",
          "name": "hashToApprove",
          "type": "bytes32"
        }
      ],
      "name": "approveHash",
      "outputs": [],
      "stateMutability": "nonpayable",
      "type": "function"
    },
    {
      "inputs": [
        {
          "internalType": "address",
          "name": "",
          "type": "address"
        },
        {
          "internalType": "bytes32",
          "name": "",
          "type": "bytes32"
        }
      ],
      "name": "approvedHashes",
      "outputs": [
        {
          "internalType": "uint256",
          "name": "",
          "type": "uint256"
        }
      ],
      "stateMutability": "view",
      "type": "function"
    },
    {
      "inputs": [
        {
          "internalType": "uint256",
          "name": "_threshold",
          "type": "uint256"
        }
      ],
      "name": "changeThreshold",
      "outputs": [],
      "stateMutability": "nonpayable",
      "type": "function"
    },
    {
      "inputs": [
        {
          "internalType": "bytes32",
          "name": "dataHash",
          "type": "bytes32"
        },
        {
          "internalType": "bytes",
          "name": "data",
          "type": "bytes"
        },
        {
          "internalType": "bytes",
          "name": "signatures",
          "type": "bytes"
        },
        {
          "internalType": "uint256",
          "name": "requiredSignatures",
          "type": "uint256"
        }
      ],
      "name": "checkNSignatures",
      "outputs": [],
      "stateMutability": "view",
      "type": "function"
    },
    {
      "inputs": [
        {
          "internalType": "bytes32",
          "name": "dataHash",
          "type": "bytes32"
        },
        {
          "internalType": "bytes",
          "name": "data",
          "type": "bytes"
        },
        {
          "internalType": "bytes",
          "name": "signatures",
          "type": "bytes"
        }
      ],
      "name": "checkSignatures",
      "outputs": [],
      "stateMutability": "view",
      "type": "function"
    },
    {
      "inputs": [
        {
          "internalType": "address",
          "name": "prevModule",
          "type": "address"
        },
        {
          "internalType": "address",
          "name": "module",
          "type": "address"
        }
      ],
      "name": "disableModule",
      "outputs": [],
      "stateMutability": "nonpayable",
      "type": "function"
    },
    {
      "inputs": [],
      "name": "domainSeparator",
      "outputs": [
        {
          "internalType": "bytes32",
          "name": "",
          "type": "bytes32"
        }
      ],
      "stateMutability": "view",
      "type": "function"
    },
    {
      "inputs": [
        {
          "internalType": "address",
          "name": "module",
          "type": "address"
        }
      ],
      "name": "enableModule",
      "outputs": [],
      "stateMutability": "nonpayable",
      "type": "function"
    },
    {
      "inputs": [
        {
          "internalType": "address",
          "name": "to",
          "type": "address"
        },
        {
          "internalType": "uint256",
          "name": "value",
          "type": "uint256"
        },
        {
          "internalType": "bytes",
          "name": "data",
          "type": "bytes"
        },
        {
          "internalType": "enum Enum.Operation",
          "name": "operation",
          "type": "uint8"
        },
        {
          "internalType": "uint256",
          "name": "safeTxGas",
          "type": "uint256"
        },
        {
          "internalType": "uint256",
          "name": "baseGas",
          "type": "uint256"
        },
        {
          "internalType": "uint256",
          "name": "gasPrice",
          "type": "uint256"
        },
        {
          "internalType": "address",
          "name": "gasToken",
          "type": "address"
        },
        {
          "internalType": "address",
          "name": "refundReceiver",
          "type": "address"
        },
        {
          "internalType": "uint256",
          "name": "_nonce",
          "type": "uint256"
        }
      ],
      "name": "encodeTransactionData",
      "outputs": [
        {
          "internalType": "bytes",
          "name": "",
          "type": "bytes"
        }
      ],
      "stateMutability": "view",
      "type": "function"
    },
    {
      "inputs": [
        {
          "internalType": "address",
          "name": "to",
          "type": "address"
        },
        {
          "internalType": "uint256",
          "name": "value",
          "type": "uint256"
        },
        {
          "internalType": "bytes",
          "name": "data",
          "type": "bytes"
        },
        {
          "internalType": "enum Enum.Operation",
          "name": "operation",
          "type": "uint8"
        },
        {
          "internalType": "uint256",
          "name": "safeTxGas",
          "type": "uint256"
        },
        {
          "internalType": "uint256",
          "name": "baseGas",
          "type": "uint256"
        },
        {
          "internalType": "uint256",
          "name": "gasPrice",
          "type": "uint256"
        },
        {
          "internalType": "address",
          "name": "gasToken",
          "type": "address"
        },
        {
          "internalType": "address payable",
          "name": "refundReceiver",
          "type": "address"
        },
        {
          "internalType": "bytes",
          "name": "signatures",
          "type": "bytes"
        }
      ],
      "name": "execTransaction",
      "outputs": [
        {
          "internalType": "bool",
          "name": "success",
          "type": "bool"
        }
      ],
      "stateMutability": "payable",
      "type": "function"
    },
    {
      "inputs": [
        {
          "internalType": "address",
          "name": "to",
          "type": "address"
        },
        {
          "internalType": "uint256",
          "name": "value",
          "type": "uint256"
        },
        {
          "internalType": "bytes",
          "name": "data",
          "type": "bytes"
        },
        {
          "internalType": "enum Enum.Operation",
          "name": "operation",
          "type": "uint8"
        }
      ],
      "name": "execTransactionFromModule",
      "outputs": [
        {
          "internalType": "bool",
          "name": "success",
          "type": "bool"
        }
      ],
      "stateMutability": "nonpayable",
      "type": "function"
    },
    {
      "inputs": [
        {
          "internalType": "address",
          "name": "to",
          "type": "address"
        },
        {
          "internalType": "uint256",
          "name": "value",
          "type": "uint256"
        },
        {
          "internalType": "bytes",
          "name": "data",
          "type": "bytes"
        },
        {
          "internalType": "enum Enum.Operation",
          "name": "operation",
          "type": "uint8"
        }
      ],
      "name": "execTransactionFromModuleReturnData",
      "outputs": [
        {
          "internalType": "bool",
          "name": "success",
          "type": "bool"
        },
        {
          "internalType": "bytes",
          "name": "returnData",
          "type": "bytes"
        }
      ],
      "stateMutability": "nonpayable",
      "type": "function"
    },
    {
      "inputs": [
        {
          "internalType": "address",
          "name": "to",
          "type": "address"
        },
        {
          "internalType": "uint256",
          "name": "value",
          "type": "uint256"
        },
        {
          "internalType": "bytes",
          "name": "data",
          "type": "bytes"
        },
        {
          "internalType": "enum Enum.Operation",
          "name": "operation",
          "type": "uint8"
        }
      ],
      "name": "executeAndRevert",
      "outputs": [],
      "stateMutability": "nonpayable",
      "type": "function"
    },
    {
      "inputs": [],
      "name": "getChainId",
      "outputs": [
        {
          "internalType": "uint256",
          "name": "",
          "type": "uint256"
        }
      ],
      "stateMutability": "view",
      "type": "function"
    },
    {
      "inputs": [
        {
          "internalType": "address",
          "name": "start",
          "type": "address"
        },
        {
          "internalType": "uint256",
          "name": "pageSize",
          "type": "uint256"
        }
      ],
      "name": "getModulesPaginated",
      "outputs": [
        {
          "internalType": "address[]",
          "name": "array",
          "type": "address[]"
        },
        {
          "internalType": "address",
          "name": "next",
          "type": "address"
        }
      ],
      "stateMutability": "view",
      "type": "function"
    },
    {
      "inputs": [],
      "name": "getNonce",
      "outputs": [
        {
          "internalType": "uint256",
          "name": "",
          "type": "uint256"
        }
      ],
      "stateMutability": "view",
      "type": "function"
    },
    {
      "inputs": [],
      "name": "getOwners",
      "outputs": [
        {
          "internalType": "address[]",
          "name": "",
          "type": "address[]"
        }
      ],
      "stateMutability": "view",
      "type": "function"
    },
    {
      "inputs": [
        {
          "internalType": "uint256",
          "name": "offset",
          "type": "uint256"
        },
        {
          "internalType": "uint256",
          "name": "length",
          "type": "uint256"
        }
      ],
      "name": "getStorageAt",
      "outputs": [
        {
          "internalType": "bytes",
          "name": "",
          "type": "bytes"
        }
      ],
      "stateMutability": "view",
      "type": "function"
    },
    {
      "inputs": [],
      "name": "getThreshold",
      "outputs": [
        {
          "internalType": "uint256",
          "name": "",
          "type": "uint256"
        }
      ],
      "stateMutability": "view",
      "type": "function"
    },
    {
      "inputs": [
        {
          "internalType": "address",
          "name": "to",
          "type": "address"
        },
        {
          "internalType": "uint256",
          "name": "value",
          "type": "uint256"
        },
        {
          "internalType": "bytes",
          "name": "data",
          "type": "bytes"
        },
        {
          "internalType": "enum Enum.Operation",
          "name": "operation",
          "type": "uint8"
        },
        {
          "internalType": "uint256",
          "name": "safeTxGas",
          "type": "uint256"
        },
        {
          "internalType": "uint256",
          "name": "baseGas",
          "type": "uint256"
        },
        {
          "internalType": "uint256",
          "name": "gasPrice",
          "type": "uint256"
        },
        {
          "internalType": "address",
          "name": "gasToken",
          "type": "address"
        },
        {
          "internalType": "address",
          "name": "refundReceiver",
          "type": "address"
        },
        {
          "internalType": "uint256",
          "name": "_nonce",
          "type": "uint256"
        }
      ],
      "name": "getTransactionHash",
      "outputs": [
        {
          "internalType": "bytes32",
          "name": "",
          "type": "bytes32"
        }
      ],
      "stateMutability": "view",
      "type": "function"
    },
    {
      "inputs": [
        {
          "internalType": "address",
          "name": "module",
          "type": "address"
        }
      ],
      "name": "isModuleEnabled",
      "outputs": [
        {
          "internalType": "bool",
          "name": "",
          "type": "bool"
        }
      ],
      "stateMutability": "view",
      "type": "function"
    },
    {
      "inputs": [
        {
          "internalType": "address",
          "name": "owner",
          "type": "address"
        }
      ],
      "name": "isOwner",
      "outputs": [
        {
          "internalType": "bool",
          "name": "",
          "type": "bool"
        }
      ],
      "stateMutability": "view",
      "type": "function"
    },
    {
      "inputs": [],
      "name": "nonce",
      "outputs": [
        {
          "internalType": "uint256",
          "name": "",
          "type": "uint256"
        }
      ],
      "stateMutability": "view",
      "type": "function"
    },
    {
      "inputs": [
        {
          "internalType": "address",
          "name": "prevOwner",
          "type": "address"
        },
        {
          "internalType": "address",
          "name": "owner",
          "type": "address"
        },
        {
          "internalType": "uint256",
          "name": "_threshold",
          "type": "uint256"
        }
      ],
      "name": "removeOwner",
      "outputs": [],
      "stateMutability": "nonpayable",
      "type": "function"
    },
    {
      "inputs": [
        {
          "internalType": "address",
          "name": "newEntrypoint",
          "type": "address"
        }
      ],
      "name": "replaceEntrypoint",
      "outputs": [],
      "stateMutability": "nonpayable",
      "type": "function"
    },
    {
      "inputs": [
        {
          "internalType": "address",
          "name": "handler",
          "type": "address"
        }
      ],
      "name": "setFallbackHandler",
      "outputs": [],
      "stateMutability": "nonpayable",
      "type": "function"
    },
    {
      "inputs": [
        {
          "internalType": "address",
          "name": "guard",
          "type": "address"
        }
      ],
      "name": "setGuard",
      "outputs": [],
      "stateMutability": "nonpayable",
      "type": "function"
    },
    {
      "inputs": [
        {
          "internalType": "address[]",
          "name": "_owners",
          "type": "address[]"
        },
        {
          "internalType": "uint256",
          "name": "_threshold",
          "type": "uint256"
        },
        {
          "internalType": "address",
          "name": "to",
          "type": "address"
        },
        {
          "internalType": "bytes",
          "name": "data",
          "type": "bytes"
        },
        {
          "internalType": "address",
          "name": "fallbackHandler",
          "type": "address"
        },
        {
          "internalType": "address",
          "name": "paymentToken",
          "type": "address"
        },
        {
          "internalType": "uint256",
          "name": "payment",
          "type": "uint256"
        },
        {
          "internalType": "address payable",
          "name": "paymentReceiver",
          "type": "address"
        }
      ],
      "name": "setup",
      "outputs": [],
      "stateMutability": "nonpayable",
      "type": "function"
    },
    {
      "inputs": [
        {
          "internalType": "bytes32",
          "name": "",
          "type": "bytes32"
        }
      ],
      "name": "signedMessages",
      "outputs": [
        {
          "internalType": "uint256",
          "name": "",
          "type": "uint256"
        }
      ],
      "stateMutability": "view",
      "type": "function"
    },
    {
      "inputs": [
        {
          "internalType": "address",
          "name": "targetContract",
          "type": "address"
        },
        {
          "internalType": "bytes",
          "name": "calldataPayload",
          "type": "bytes"
        }
      ],
      "name": "simulateAndRevert",
      "outputs": [],
      "stateMutability": "nonpayable",
      "type": "function"
    },
    {
      "inputs": [
        {
          "internalType": "address",
          "name": "prevOwner",
          "type": "address"
        },
        {
          "internalType": "address",
          "name": "oldOwner",
          "type": "address"
        },
        {
          "internalType": "address",
          "name": "newOwner",
          "type": "address"
        }
      ],
      "name": "swapOwner",
      "outputs": [],
      "stateMutability": "nonpayable",
      "type": "function"
    },
    {
      "inputs": [
        {
          "components": [
            {
              "internalType": "address",
              "name": "sender",
              "type": "address"
            },
            {
              "internalType": "uint256",
              "name": "nonce",
              "type": "uint256"
            },
            {
              "internalType": "bytes",
              "name": "initCode",
              "type": "bytes"
            },
            {
              "internalType": "bytes",
              "name": "callData",
              "type": "bytes"
            },
            {
              "internalType": "uint256",
              "name": "callGasLimit",
              "type": "uint256"
            },
            {
              "internalType": "uint256",
              "name": "verificationGasLimit",
              "type": "uint256"
            },
            {
              "internalType": "uint256",
              "name": "preVerificationGas",
              "type": "uint256"
            },
            {
              "internalType": "uint256",
              "name": "maxFeePerGas",
              "type": "uint256"
            },
            {
              "internalType": "uint256",
              "name": "maxPriorityFeePerGas",
              "type": "uint256"
            },
            {
              "internalType": "bytes",
              "name": "paymasterAndData",
              "type": "bytes"
            },
            {
              "internalType": "bytes",
              "name": "signature",
              "type": "bytes"
            }
          ],
          "internalType": "struct UserOperation",
          "name": "userOp",
          "type": "tuple"
        },
        {
          "internalType": "bytes32",
          "name": "userOpHash",
          "type": "bytes32"
        },
        {
          "internalType": "uint256",
          "name": "missingAccountFunds",
          "type": "uint256"
        }
      ],
      "name": "validateUserOp",
      "outputs": [
        {
          "internalType": "uint256",
          "name": "validationData",
          "type": "uint256"
        }
      ],
      "stateMutability": "nonpayable",
      "type": "function"
    },
    {
      "stateMutability": "payable",
      "type": "receive"
    }
  ],
  "bytecode": "0x60806040523480156200001157600080fd5b5060405162003a2638038062003a2683398101604081905262000034916200005f565b6001600455600980546001600160a01b0319166001600160a01b039290921691909117905562000091565b6000602082840312156200007257600080fd5b81516001600160a01b03811681146200008a57600080fd5b9392505050565b61398580620000a16000396000f3fe6080604052600436106102085760003560e01c8063affed0e011610118578063e19a9dd9116100a0578063f08a03231161006f578063f08a0323146106b9578063f30d76a3146106d9578063f698da25146106f9578063f8dc5dd91461070e578063ffa1ad741461072e57610244565b8063e19a9dd914610644578063e318b52b14610664578063e75235b814610684578063e86637db1461069957610244565b8063cc2f8452116100e7578063cc2f8452146105a1578063d087d288146105cf578063d4d9bdcd146105e4578063d8d11f7814610604578063e009cfde1461062457610244565b8063affed0e014610513578063b3080c2414610529578063b4faba0914610561578063b63e800d1461058157610244565b80635624b25b1161019b5780636a7612021161016a5780636a761202146104665780637d83297414610479578063934f3a11146104b1578063940d3c60146104d1578063a0e67e2b146104f157610244565b80635624b25b146103cc5780635ae6bd37146103f9578063610b592514610426578063694e80c31461044657610244565b80633408e470116101d75780633408e470146103415780633a871cdd1461035e578063468721a71461037e5780635229073f1461039e57610244565b80630d582f13146102aa57806312fb68e0146102cc5780632d9ad53d146102ec5780632f54bf6e1461032157610244565b366102445760405134815233907f3d0ce9bfc3ed7d6862dbb28b2dea94561fe714a1b4d019aa8af39730d1ad7c3d9060200160405180910390a2005b34801561025057600080fd5b507f6c9a6c4a39284e37ed1cf53d337577d14212a4870fb976a4366c693b939918d580548061027b57005b36600080373360601b365260008060143601600080855af190503d6000803e806102a4573d6000fd5b503d6000f35b3480156102b657600080fd5b506102ca6102c5366004612d27565b61075f565b005b3480156102d857600080fd5b506102ca6102e7366004612e16565b6108b7565b3480156102f857600080fd5b5061030c610307366004612e8a565b610d5f565b60405190151581526020015b60405180910390f35b34801561032d57600080fd5b5061030c61033c366004612e8a565b610d9a565b34801561034d57600080fd5b50465b604051908152602001610318565b34801561036a57600080fd5b50610350610379366004612ea7565b610dd2565b34801561038a57600080fd5b5061030c610399366004612f09565b611058565b3480156103aa57600080fd5b506103be6103b9366004612f09565b611131565b604051610318929190612fc2565b3480156103d857600080fd5b506103ec6103e7366004612fdd565b611167565b6040516103189190612fff565b34801561040557600080fd5b50610350610414366004613012565b60076020526000908152604090205481565b34801561043257600080fd5b506102ca610441366004612e8a565b6111ec565b34801561045257600080fd5b506102ca610461366004613012565b611325565b61030c61047436600461306c565b6113c3565b34801561048557600080fd5b50610350610494366004612d27565b600860209081526000928352604080842090915290825290205481565b3480156104bd57600080fd5b506102ca6104cc366004613144565b61170e565b3480156104dd57600080fd5b506102ca6104ec366004612f09565b611758565b3480156104fd57600080fd5b50610506611823565b60405161031891906131f4565b34801561051f57600080fd5b5061035060055481565b34801561053557600080fd5b50600954610549906001600160a01b031681565b6040516001600160a01b039091168152602001610318565b34801561056d57600080fd5b506102ca61057c366004613207565b611913565b34801561058d57600080fd5b506102ca61059c366004613256565b611936565b3480156105ad57600080fd5b506105c16105bc366004612d27565b611a38565b60405161031892919061334a565b3480156105db57600080fd5b50610350611bf3565b3480156105f057600080fd5b506102ca6105ff366004613012565b611c6c565b34801561061057600080fd5b5061035061061f366004613374565b611d01565b34801561063057600080fd5b506102ca61063f366004613434565b611d2e565b34801561065057600080fd5b506102ca61065f366004612e8a565b611e50565b34801561067057600080fd5b506102ca61067f36600461346d565b611f66565b34801561069057600080fd5b50600454610350565b3480156106a557600080fd5b506103ec6106b4366004613374565b612141565b3480156106c557600080fd5b506102ca6106d4366004612e8a565b61221a565b3480156106e557600080fd5b506102ca6106f4366004612e8a565b612262565b34801561070557600080fd5b5061035061228c565b34801561071a57600080fd5b506102ca6107293660046134b8565b6122e3565b34801561073a57600080fd5b506103ec604051806040016040528060058152602001640312e342e360dc1b81525081565b61076761244e565b6001600160a01b0382161580159061078957506001600160a01b038216600114155b801561079e57506001600160a01b0382163014155b6107c35760405162461bcd60e51b81526004016107ba906134f9565b60405180910390fd5b6001600160a01b0382811660009081526002602052604090205416156107fb5760405162461bcd60e51b81526004016107ba90613518565b60026020527fe90b7bceb6e7df5418fb78d8ee546e97c83a08bbccc01a0644d599ccd2a7c2e080546001600160a01b038481166000818152604081208054939094166001600160a01b0319938416179093556001835283549091161790915560038054916108688361354d565b90915550506040516001600160a01b038316907f9465fa0c962cc76958e6373a993326400c1c94f8be2fe3a952adfa7f60b2ea2690600090a280600454146108b3576108b381611325565b5050565b6108c2816041612487565b825110156108fa5760405162461bcd60e51b8152602060048201526005602482015264047533032360dc1b60448201526064016107ba565b6000808060008060005b86811015610d53576041818102890160208101516040820151919092015160ff16955090935091506000849003610b1257885160208a01208a146109725760405162461bcd60e51b8152602060048201526005602482015264475330323760d81b60448201526064016107ba565b9193508391610982876041612487565b8210156109b95760405162461bcd60e51b8152602060048201526005602482015264475330323160d81b60448201526064016107ba565b87516109c68360206124c3565b11156109fc5760405162461bcd60e51b815260206004820152600560248201526423a998191960d91b60448201526064016107ba565b602082890181015189519091610a1f908390610a199087906124c3565b906124c3565b1115610a555760405162461bcd60e51b8152602060048201526005602482015264475330323360d81b60448201526064016107ba565b6040516320c13b0b60e01b8082528a8501602001916001600160a01b038916906320c13b0b90610a8b908f908690600401613566565b602060405180830381865afa158015610aa8573d6000803e3d6000fd5b505050506040513d601f19601f82011682018060405250810190610acc919061358b565b6001600160e01b03191614610b0b5760405162461bcd60e51b815260206004820152600560248201526411d4cc0c8d60da1b60448201526064016107ba565b5050610cb9565b8360ff16600103610b94579193508391336001600160a01b0384161480610b5b57506001600160a01b03851660009081526008602090815260408083208d845290915290205415155b610b8f5760405162461bcd60e51b8152602060048201526005602482015264475330323560d81b60448201526064016107ba565b610cb9565b601e8460ff161115610c59576040517f19457468657265756d205369676e6564204d6573736167653a0a3332000000006020820152603c81018b9052600190605c0160405160208183030381529060405280519060200120600486610bf991906135b5565b6040805160008152602081018083529390935260ff90911690820152606081018590526080810184905260a0016020604051602081039080840390855afa158015610c48573d6000803e3d6000fd5b505050602060405103519450610cb9565b6040805160008152602081018083528c905260ff861691810191909152606081018490526080810183905260019060a0016020604051602081039080840390855afa158015610cac573d6000803e3d6000fd5b5050506020604051035194505b856001600160a01b0316856001600160a01b0316118015610cf357506001600160a01b038581166000908152600260205260409020541615155b8015610d0957506001600160a01b038516600114155b610d3d5760405162461bcd60e51b815260206004820152600560248201526423a998191b60d91b60448201526064016107ba565b8495508080610d4b9061354d565b915050610904565b50505050505050505050565b600060016001600160a01b03831614801590610d9457506001600160a01b038281166000908152600160205260409020541615155b92915050565b60006001600160a01b038216600114801590610d945750506001600160a01b0390811660009081526002602052604090205416151590565b6009546000906001600160a01b03163314610e2f5760405162461bcd60e51b815260206004820152601c60248201527f6163636f756e743a206e6f742066726f6d20456e747279506f696e740000000060448201526064016107ba565b306000610e89856040517f19457468657265756d205369676e6564204d6573736167653a0a3332000000006020820152603c8101829052600090605c01604051602081830303815290604052805190602001209050919050565b90506000610edb610e9e6101408901896135ce565b8080601f01602080910402602001604051908101604052809392919081815260200183838082843760009201919091525086939250506124df9050565b9050600454600114610f2f5760405162461bcd60e51b815260206004820152601960248201527f6163636f756e743a206f6e6c79207468726573686f6c6420310000000000000060448201526064016107ba565b6040516317aa5fb760e11b81526001600160a01b038281166004830152841690632f54bf6e90602401602060405180830381865afa158015610f75573d6000803e3d6000fd5b505050506040513d601f19601f82011682018060405250810190610f999190613614565b610fa257600193505b6001600160401b03602088013510610ffc5760405162461bcd60e51b815260206004820152601c60248201527f6163636f756e743a206e6f6e73657175656e7469616c206e6f6e63650000000060448201526064016107ba565b841561104e57604051600090339087908381818185875af1925050503d8060008114611044576040519150601f19603f3d011682016040523d82523d6000602084013e611049565b606091505b505050505b5050509392505050565b6000336001148015906110825750336000908152600160205260409020546001600160a01b031615155b6110b65760405162461bcd60e51b815260206004820152600560248201526411d4cc4c0d60da1b60448201526064016107ba565b6110c5858585856000196124fb565b905080156110fd5760405133907f6895c13664aa4f67288b25d7a21d7aaa34916e355fb9b6fae0a139a9085becb890600090a2611129565b60405133907facd2c8702804128fdb0db2bb49f6d127dd0181c13fd45dbfe16de0930e2bd37590600090a25b949350505050565b6000606061114186868686611058565b915060405160203d0181016040523d81523d6000602083013e8091505094509492505050565b60606000611176836020613636565b6001600160401b0381111561118d5761118d612d53565b6040519080825280601f01601f1916602001820160405280156111b7576020820181803683370190505b50905060005b838110156111e45784810154602080830284010152806111dc8161354d565b9150506111bd565b509392505050565b6111f461244e565b6001600160a01b0381161580159061121657506001600160a01b038116600114155b61124a5760405162461bcd60e51b8152602060048201526005602482015264475331303160d81b60448201526064016107ba565b6001600160a01b03818116600090815260016020526040902054161561129a5760405162461bcd60e51b815260206004820152600560248201526423a998981960d91b60448201526064016107ba565b600160208190527fcc69885fda6bcc1a4ace058b4a62bf5e179ea78fd58a1ccd71c22cc9b688792f80546001600160a01b03848116600081815260408082208054949095166001600160a01b031994851617909455948552835490911681179092555190917fecdf3a3effea5783a3c4c2140e677577666428d44ed9d474a0b3a4c9943f844091a250565b61132d61244e565b60035481111561134f5760405162461bcd60e51b81526004016107ba9061364d565b60018110156113885760405162461bcd60e51b815260206004820152600560248201526423a999181960d91b60448201526064016107ba565b60048190556040518181527f610f7ff2b304ae8903c3de74c60c6ab1f7d6226b3f52c5161905bb5ad4039c939060200160405180910390a150565b60008060006113dd8e8e8e8e8e8e8e8e8e8e600554612141565b6005805491925060006113ef8361354d565b909155505080516020820120915061140882828661170e565b5060006114337f4a204f620c8c5ccdca3fd54d003badd85ba500436a431f0cbda4f558c93c34c85490565b90506001600160a01b038116156114b957806001600160a01b03166375f0bb528f8f8f8f8f8f8f8f8f8f8f336040518d63ffffffff1660e01b81526004016114869c9b9a999897969594939291906136a4565b600060405180830381600087803b1580156114a057600080fd5b505af11580156114b4573d6000803e3d6000fd5b505050505b6114e56114c88a6109c4613769565b603f6114d58c6040613636565b6114df919061377c565b90612542565b6114f1906101f4613769565b5a10156115285760405162461bcd60e51b8152602060048201526005602482015264047533031360dc1b60448201526064016107ba565b60005a90506115998f8f8f8f8080601f016020809104026020016040519081016040528093929190818152602001838380828437600081840152601f19601f820116905080830192505050505050508e8c600014611586578e6124fb565b6109c45a611594919061379e565b6124fb565b93506115a65a8290612559565b905083806115b357508915155b806115bd57508715155b6115f15760405162461bcd60e51b8152602060048201526005602482015264475330313360d81b60448201526064016107ba565b6000881561160957611606828b8b8b8b612574565b90505b841561164e57837f442e715f626346e8c54381002da614f62bee8d27386535b2521ec8540898556e8260405161164191815260200190565b60405180910390a2611689565b837f23428b18acfb3ea64b08dc0c1d296ea9c09702c09083ca5272e64d115b687d238260405161168091815260200190565b60405180910390a25b50506001600160a01b038116156116fd57604051631264e26d60e31b81526004810183905283151560248201526001600160a01b03821690639327136890604401600060405180830381600087803b1580156116e457600080fd5b505af11580156116f8573d6000803e3d6000fd5b505050505b50509b9a5050505050505050505050565b600454806117465760405162461bcd60e51b8152602060048201526005602482015264475330303160d81b60448201526064016107ba565b611752848484846108b7565b50505050565b6009546001600160a01b031633146117b25760405162461bcd60e51b815260206004820152601c60248201527f6163636f756e743a206e6f742066726f6d20456e747279506f696e740000000060448201526064016107ba565b60006117c3858585856000196124fb565b905060006117d260001961267a565b90508161181b576044815110156117e857600080fd5b6004810190508080602001905181019061180291906137b1565b60405162461bcd60e51b81526004016107ba9190612fff565b505050505050565b606060006003546001600160401b0381111561184157611841612d53565b60405190808252806020026020018201604052801561186a578160200160208202803683370190505b506001600090815260026020527fe90b7bceb6e7df5418fb78d8ee546e97c83a08bbccc01a0644d599ccd2a7c2e054919250906001600160a01b03165b6001600160a01b03811660011461190b57808383815181106118cb576118cb61381e565b6001600160a01b039283166020918202929092018101919091529181166000908152600290925260409091205416816119038161354d565b9250506118a7565b509092915050565b600080825160208401855af480600052503d6020523d600060403e60403d016000fd5b6119748a8a808060200260200160405190810160405280939291908181526020018383602002808284376000920191909152508c92506126a6915050565b6001600160a01b0384161561198c5761198c8461288c565b6119cc8787878080601f0160208091040260200160405190810160405280939291908181526020018383808284376000920191909152506128f092505050565b81156119e3576119e182600060018685612574565b505b336001600160a01b03167f141df868a6331af528e38c83b7aa03edc19be66e37ae67f9285bf4f8e3c6a1a88b8b8b8b89604051611a24959493929190613834565b60405180910390a250505050505050505050565b606060006001600160a01b03841660011480611a585750611a5884610d5f565b611a8c5760405162461bcd60e51b8152602060048201526005602482015264475331303560d81b60448201526064016107ba565b60008311611ac45760405162461bcd60e51b815260206004820152600560248201526423a998981b60d91b60448201526064016107ba565b826001600160401b03811115611adc57611adc612d53565b604051908082528060200260200182016040528015611b05578160200160208202803683370190505b506001600160a01b03808616600090815260016020526040812054929450911691505b6001600160a01b03821615801590611b4a57506001600160a01b038216600114155b8015611b5557508381105b15611bb05781838281518110611b6d57611b6d61381e565b6001600160a01b03928316602091820292909201810191909152928116600090815260019093526040909220549091169080611ba88161354d565b915050611b28565b6001600160a01b038216600114611be85782611bcd60018361379e565b81518110611bdd57611bdd61381e565b602002602001015191505b808352509250929050565b600954604051631aab3f0d60e11b8152306004820152600060248201819052916001600160a01b0316906335567e1a90604401602060405180830381865afa158015611c43573d6000803e3d6000fd5b505050506040513d601f19601f82011682018060405250810190611c6791906138a0565b905090565b336000908152600260205260409020546001600160a01b0316611cb95760405162461bcd60e51b8152602060048201526005602482015264047533033360dc1b60448201526064016107ba565b336000818152600860209081526040808320858452909152808220600190555183917ff2a0eb156472d1440255b0d7c1e19cc07115d1051fe605b0dce69acfec884d9c91a350565b6000611d168c8c8c8c8c8c8c8c8c8c8c612141565b8051906020012090509b9a5050505050505050505050565b611d3661244e565b6001600160a01b03811615801590611d5857506001600160a01b038116600114155b611d8c5760405162461bcd60e51b8152602060048201526005602482015264475331303160d81b60448201526064016107ba565b6001600160a01b03828116600090815260016020526040902054811690821614611de05760405162461bcd60e51b8152602060048201526005602482015264475331303360d81b60448201526064016107ba565b6001600160a01b03818116600081815260016020526040808220805487861684528284208054919096166001600160a01b0319918216179095558383528054909416909355915190917faab4fa2b463f581b2b32cb3b7e3b704b9ce37cc209b5fb4d77e593ace405427691a25050565b611e5861244e565b6001600160a01b03811615611f0a576040516301ffc9a760e01b815263736bd41d60e11b60048201526001600160a01b038216906301ffc9a790602401602060405180830381865afa158015611eb2573d6000803e3d6000fd5b505050506040513d601f19601f82011682018060405250810190611ed69190613614565b611f0a5760405162461bcd60e51b8152602060048201526005602482015264047533330360dc1b60448201526064016107ba565b7f4a204f620c8c5ccdca3fd54d003badd85ba500436a431f0cbda4f558c93c34c88181556040516001600160a01b038316907f1151116914515bc0891ff9047a6cb32cf902546f83066499bcf8ba33d2353fa290600090a25050565b611f6e61244e565b6001600160a01b03811615801590611f9057506001600160a01b038116600114155b8015611fa557506001600160a01b0381163014155b611fc15760405162461bcd60e51b81526004016107ba906134f9565b6001600160a01b038181166000908152600260205260409020541615611ff95760405162461bcd60e51b81526004016107ba90613518565b6001600160a01b0382161580159061201b57506001600160a01b038216600114155b6120375760405162461bcd60e51b81526004016107ba906134f9565b6001600160a01b0383811660009081526002602052604090205481169083161461208b5760405162461bcd60e51b8152602060048201526005602482015264475332303560d81b60448201526064016107ba565b6001600160a01b03828116600081815260026020526040808220805486861680855283852080549288166001600160a01b03199384161790559589168452828420805482169096179095558383528054909416909355915190917ff8d49fc529812e9a7c5c50e69c20f0dccc0db8fa95c98bc58cc9a4f1c1299eaf91a26040516001600160a01b038216907f9465fa0c962cc76958e6373a993326400c1c94f8be2fe3a952adfa7f60b2ea2690600090a2505050565b606060007fbb8310d486368db6bd6f849402fdd73ad53d316b5a4b2644ad6efe0f941286d860001b8d8d8d8d60405161217b9291906138b9565b6040519081900381206121a1949392918e908e908e908e908e908e908e906020016138c9565b60408051601f1981840301815291905280516020909101209050601960f81b600160f81b6121cd61228c565b6040516001600160f81b031993841660208201529290911660218301526022820152604281018290526062016040516020818303038152906040529150509b9a5050505050505050505050565b61222261244e565b61222b8161288c565b6040516001600160a01b038216907f5ac6c46c93c8d0e53714ba3b53db3e7c046da994313d7ed0d192028bc7c228b090600090a250565b61226a61244e565b600980546001600160a01b0319166001600160a01b0392909216919091179055565b60007f47e79534a245952e8b16893a336b85a3d9ea9fa8c573f3d803afb92a794692184660408051602081019390935282015230606082015260800160405160208183030381529060405280519060200120905090565b6122eb61244e565b8060016003546122fb919061379e565b10156123195760405162461bcd60e51b81526004016107ba9061364d565b6001600160a01b0382161580159061233b57506001600160a01b038216600114155b6123575760405162461bcd60e51b81526004016107ba906134f9565b6001600160a01b038381166000908152600260205260409020548116908316146123ab5760405162461bcd60e51b8152602060048201526005602482015264475332303560d81b60448201526064016107ba565b6001600160a01b03828116600081815260026020526040808220805488861684529183208054929095166001600160a01b031992831617909455918152825490911690915560038054916123fe83613938565b90915550506040516001600160a01b038316907ff8d49fc529812e9a7c5c50e69c20f0dccc0db8fa95c98bc58cc9a4f1c1299eaf90600090a280600454146124495761244981611325565b505050565b3330146124855760405162461bcd60e51b8152602060048201526005602482015264475330333160d81b60448201526064016107ba565b565b60008260000361249957506000610d94565b60006124a58385613636565b9050826124b2858361377c565b146124bc57600080fd5b9392505050565b6000806124d08385613769565b9050838110156124bc57600080fd5b60008060006124ee8585612a20565b915091506111e481612a65565b600060018360018111156125115761251161366c565b03612529576000808551602087018986f49050612539565b600080855160208701888a87f190505b95945050505050565b60008183101561255257816124bc565b5090919050565b60008282111561256857600080fd5b6000611129838561379e565b6000806001600160a01b0383161561258c578261258e565b325b90506001600160a01b038416612621576125c03a86106125ae573a6125b0565b855b6125ba89896124c3565b90612487565b6040519092506001600160a01b0382169083156108fc029084906000818181858888f1935050505061261c5760405162461bcd60e51b8152602060048201526005602482015264475330313160d81b60448201526064016107ba565b612670565b61262f856125ba89896124c3565b915061263c848284612bb2565b6126705760405162461bcd60e51b815260206004820152600560248201526423a998189960d91b60448201526064016107ba565b5095945050505050565b60603d828111156126885750815b604051602082018101604052818152816000602083013e9392505050565b600454156126de5760405162461bcd60e51b8152602060048201526005602482015264047533230360dc1b60448201526064016107ba565b81518111156126ff5760405162461bcd60e51b81526004016107ba9061364d565b60018110156127385760405162461bcd60e51b815260206004820152600560248201526423a999181960d91b60448201526064016107ba565b600160005b835181101561285957600084828151811061275a5761275a61381e565b6020026020010151905060006001600160a01b0316816001600160a01b03161415801561279157506001600160a01b038116600114155b80156127a657506001600160a01b0381163014155b80156127c45750806001600160a01b0316836001600160a01b031614155b6127e05760405162461bcd60e51b81526004016107ba906134f9565b6001600160a01b0381811660009081526002602052604090205416156128185760405162461bcd60e51b81526004016107ba90613518565b6001600160a01b03928316600090815260026020526040902080546001600160a01b03191693821693909317909255806128518161354d565b91505061273d565b506001600160a01b0316600090815260026020526040902080546001600160a01b03191660011790559051600355600455565b306001600160a01b038216036128cc5760405162461bcd60e51b8152602060048201526005602482015264047533430360dc1b60448201526064016107ba565b7f6c9a6c4a39284e37ed1cf53d337577d14212a4870fb976a4366c693b939918d555565b600160008190526020527fcc69885fda6bcc1a4ace058b4a62bf5e179ea78fd58a1ccd71c22cc9b688792f546001600160a01b03161561295a5760405162461bcd60e51b8152602060048201526005602482015264047533130360dc1b60448201526064016107ba565b6001600081905260208190527fcc69885fda6bcc1a4ace058b4a62bf5e179ea78fd58a1ccd71c22cc9b688792f80546001600160a01b03191690911790556001600160a01b038216156108b357813b6129dd5760405162461bcd60e51b815260206004820152600560248201526423a998181960d91b60448201526064016107ba565b6129ec8260008360015a6124fb565b6108b35760405162461bcd60e51b8152602060048201526005602482015264047533030360dc1b60448201526064016107ba565b6000808251604103612a565760208301516040840151606085015160001a612a4a87828585612c3e565b94509450505050612a5e565b506000905060025b9250929050565b6000816004811115612a7957612a7961366c565b03612a815750565b6001816004811115612a9557612a9561366c565b03612ae25760405162461bcd60e51b815260206004820152601860248201527f45434453413a20696e76616c6964207369676e6174757265000000000000000060448201526064016107ba565b6002816004811115612af657612af661366c565b03612b435760405162461bcd60e51b815260206004820152601f60248201527f45434453413a20696e76616c6964207369676e6174757265206c656e6774680060448201526064016107ba565b6003816004811115612b5757612b5761366c565b03612baf5760405162461bcd60e51b815260206004820152602260248201527f45434453413a20696e76616c6964207369676e6174757265202773272076616c604482015261756560f01b60648201526084016107ba565b50565b604080516001600160a01b03841660248201526044808201849052825180830390910181526064909101909152602080820180516001600160e01b031663a9059cbb60e01b1781528251600093929184919082896127105a03f13d8015612c245760208114612c2c576000935061104e565b81935061104e565b50600051159015171595945050505050565b6000807f7fffffffffffffffffffffffffffffff5d576e7357a4501ddfe92f46681b20a0831115612c755750600090506003612cf9565b6040805160008082526020820180845289905260ff881692820192909252606081018690526080810185905260019060a0016020604051602081039080840390855afa158015612cc9573d6000803e3d6000fd5b5050604051601f1901519150506001600160a01b038116612cf257600060019250925050612cf9565b9150600090505b94509492505050565b6001600160a01b0381168114612baf57600080fd5b8035612d2281612d02565b919050565b60008060408385031215612d3a57600080fd5b8235612d4581612d02565b946020939093013593505050565b634e487b7160e01b600052604160045260246000fd5b604051601f8201601f191681016001600160401b0381118282101715612d9157612d91612d53565b604052919050565b60006001600160401b03821115612db257612db2612d53565b50601f01601f191660200190565b600082601f830112612dd157600080fd5b8135612de4612ddf82612d99565b612d69565b818152846020838601011115612df957600080fd5b816020850160208301376000918101602001919091529392505050565b60008060008060808587031215612e2c57600080fd5b8435935060208501356001600160401b0380821115612e4a57600080fd5b612e5688838901612dc0565b94506040870135915080821115612e6c57600080fd5b50612e7987828801612dc0565b949793965093946060013593505050565b600060208284031215612e9c57600080fd5b81356124bc81612d02565b600080600060608486031215612ebc57600080fd5b83356001600160401b03811115612ed257600080fd5b84016101608187031215612ee557600080fd5b95602085013595506040909401359392505050565b803560028110612d2257600080fd5b60008060008060808587031215612f1f57600080fd5b8435612f2a81612d02565b93506020850135925060408501356001600160401b03811115612f4c57600080fd5b612f5887828801612dc0565b925050612f6760608601612efa565b905092959194509250565b60005b83811015612f8d578181015183820152602001612f75565b50506000910152565b60008151808452612fae816020860160208601612f72565b601f01601f19169290920160200192915050565b82151581526040602082015260006111296040830184612f96565b60008060408385031215612ff057600080fd5b50508035926020909101359150565b6020815260006124bc6020830184612f96565b60006020828403121561302457600080fd5b5035919050565b60008083601f84011261303d57600080fd5b5081356001600160401b0381111561305457600080fd5b602083019150836020828501011115612a5e57600080fd5b60008060008060008060008060008060006101408c8e03121561308e57600080fd5b6130978c612d17565b9a5060208c013599506001600160401b038060408e013511156130b957600080fd5b6130c98e60408f01358f0161302b565b909a5098506130da60608e01612efa565b975060808d0135965060a08d0135955060c08d013594506130fd60e08e01612d17565b935061310c6101008e01612d17565b9250806101208e0135111561312057600080fd5b506131328d6101208e01358e01612dc0565b90509295989b509295989b9093969950565b60008060006060848603121561315957600080fd5b8335925060208401356001600160401b038082111561317757600080fd5b61318387838801612dc0565b9350604086013591508082111561319957600080fd5b506131a686828701612dc0565b9150509250925092565b600081518084526020808501945080840160005b838110156131e95781516001600160a01b0316875295820195908201906001016131c4565b509495945050505050565b6020815260006124bc60208301846131b0565b6000806040838503121561321a57600080fd5b823561322581612d02565b915060208301356001600160401b0381111561324057600080fd5b61324c85828601612dc0565b9150509250929050565b6000806000806000806000806000806101008b8d03121561327657600080fd5b8a356001600160401b038082111561328d57600080fd5b818d0191508d601f8301126132a157600080fd5b8135818111156132b057600080fd5b8e60208260051b85010111156132c557600080fd5b60208381019d50909b508d013599506132e060408e01612d17565b985060608d01359150808211156132f657600080fd5b506133038d828e0161302b565b9097509550613316905060808c01612d17565b935061332460a08c01612d17565b925060c08b0135915061333960e08c01612d17565b90509295989b9194979a5092959850565b60408152600061335d60408301856131b0565b905060018060a01b03831660208301529392505050565b60008060008060008060008060008060006101408c8e03121561339657600080fd5b8b356133a181612d02565b9a5060208c0135995060408c01356001600160401b038111156133c357600080fd5b6133cf8e828f0161302b565b909a5098506133e2905060608d01612efa565b965060808c0135955060a08c0135945060c08c0135935060e08c013561340781612d02565b92506101008c013561341881612d02565b809250506101208c013590509295989b509295989b9093969950565b6000806040838503121561344757600080fd5b823561345281612d02565b9150602083013561346281612d02565b809150509250929050565b60008060006060848603121561348257600080fd5b833561348d81612d02565b9250602084013561349d81612d02565b915060408401356134ad81612d02565b809150509250925092565b6000806000606084860312156134cd57600080fd5b83356134d881612d02565b925060208401356134e881612d02565b929592945050506040919091013590565b602080825260059082015264475332303360d81b604082015260600190565b60208082526005908201526411d4cc8c0d60da1b604082015260600190565b634e487b7160e01b600052601160045260246000fd5b60006001820161355f5761355f613537565b5060010190565b6040815260006135796040830185612f96565b82810360208401526125398185612f96565b60006020828403121561359d57600080fd5b81516001600160e01b0319811681146124bc57600080fd5b60ff8281168282160390811115610d9457610d94613537565b6000808335601e198436030181126135e557600080fd5b8301803591506001600160401b038211156135ff57600080fd5b602001915036819003821315612a5e57600080fd5b60006020828403121561362657600080fd5b815180151581146124bc57600080fd5b8082028115828204841417610d9457610d94613537565b602080825260059082015264475332303160d81b604082015260600190565b634e487b7160e01b600052602160045260246000fd5b600281106136a057634e487b7160e01b600052602160045260246000fd5b9052565b6001600160a01b038d168152602081018c90526101606040820181905281018a905260006101808b8d828501376000838d01820152601f8c01601f191683016136f0606085018d613682565b8a60808501528960a08501528860c085015261371760e08501896001600160a01b03169052565b6001600160a01b038716610100850152818482030161012085015261373e82820187612f96565b925050506137586101408301846001600160a01b03169052565b9d9c50505050505050505050505050565b80820180821115610d9457610d94613537565b60008261379957634e487b7160e01b600052601260045260246000fd5b500490565b81810381811115610d9457610d94613537565b6000602082840312156137c357600080fd5b81516001600160401b038111156137d957600080fd5b8201601f810184136137ea57600080fd5b80516137f8612ddf82612d99565b81815285602083850101111561380d57600080fd5b612539826020830160208601612f72565b634e487b7160e01b600052603260045260246000fd5b6080808252810185905260008660a08301825b8881101561387757823561385a81612d02565b6001600160a01b0316825260209283019290910190600101613847565b50602084019690965250506001600160a01b039283166040820152911660609091015292915050565b6000602082840312156138b257600080fd5b5051919050565b8183823760009101908152919050565b8b81526001600160a01b038b81166020830152604082018b9052606082018a90526101608201906138fd608084018b613682565b60a083019890985260c082019690965260e0810194909452918516610100840152909316610120820152610140019190915295945050505050565b60008161394757613947613537565b50600019019056fea264697066735822122039a1b77ab4cc12a5bb36350663adc4c92d2314803cd59aa6f03045eb33d6b86864736f6c63430008120033",
  "linkReferences": {},
  "deployedLinkReferences": {}
}